:10000000F1C000000CC100000AC1000008C10000DE
:1000100006C1000004C1000002C1000000C10000D0
:10002000FEC00000FCC000009EC20000D7C200005D
:10003000F6C00000F4C00000F2C00000F0C00000F4
:10004000EEC00000ECC00000EAC00000E8C0000004
:10005000E6C00000E4C00000E2C00000E0C0000014
:10006000DEC00000DCC00000DAC00000D8C0000024
:10007000D6C000004EC40000D2C00000D0C00000B6
:10008000CEC00000CCC00000CAC00000C8C0000044
:10009000C6C00000C4C000009902960293029002FC
:1000A0008D028A028702840281027E027B0278022C
:1000B000750272026F026C026902660263026002DC
:1000C0005D025A025702540251024E024B0248028C
:1000D000450242023F023C0239023602330230023C
:1000E0002D022A022702240221021E021B021802EC
:1000F000150212020F020C0209020602030200029C
:10010000FD01FA01F701F401F101EE01EB01E80153
:10011000E501E201DF01DC01D901000100004E012F
:10012000120002000060014300030000A30104016B
:10013000030904A7011402030904BD0116030309FE
:1001400004D5010C0001C112018036018136120173
:10015000000202000010C0167A040001010203012F
:1001600009024300020100C032090400000102023A
:1001700001000524001001052401010104240206E8
:100180000524060001070582031000400904010050
:10019000020A000000070503024000000705840270
:1001A00040000004030904140359006F0075007235
:1001B0000020004E0061006D006500000016035530
:1001C0000053004200200053006500720069006186
:1001D000006C0000000C03310032003300340035A5
:1001E0000000000011241FBECFEFD0E2DEBFCDBF64
:1001F00011E0A0E0B1E0EAE7F9E000E00BBF02C0E7
:1002000007900D92A830B107D9F711E0A8E0B1E04E
:1002100001C01D92A237B107E1F702D0ACC3F0CE06
:10022000FF920F931F93DF93CF9300D000D0CDB7F1
:10023000DEB790E89093610087E080936100E0EA88
:10024000FFE03197F1F7909361001092610047D081
:100250005FD08823E9F380E197E220E931E0F901FA
:100260003197F1F70197D9F781E060E426D360E296
:10027000F62E8E010F5F1F4F35D39C01892F9927D2
:10028000482F4F708F7090700A9718F4542F505D5C
:1002900002C0542F595CC90144E0969587954A9550
:1002A000E1F7482F4F708F7090700A9718F4842FE1
:1002B000805D02C0842F895C922F9F702F703070F8
:1002C0002A30310510F4905D01C0995C9B83FC825B
:1002D0008A835983C80164E070E01DD0CDCF81E8E6
:1002E0008093D70080EA8093D80086E189BD09B465
:1002F00000FEFDCF80E98093D8001092E0001092BC
:100300000801109209018CE08093E200789408952E
:10031000809108010895CF93DF93EC01809108014B
:10032000882309F41CC13FB7F89484E08093E90066
:1003300080910B01882309F408C18091E80085FDB4
:1003400002C03FBF0CC110920B01FFC09091E400AE
:10035000975E8091E80085FD13C03FBF8091E40067
:10036000891721F481E080930B01F9C08091080185
:10037000882309F4F4C03FB7F894B093E900E9CFBB
:100380008091F200242F281B822F90E068177907B4
:1003900008F4262F822F90E08134910508F0C6C022
:1003A000845B9F4FFC01EE0FFF1F0590F491E02D41
:1003B000099489918093F10089918093F10089914A
:1003C0008093F10089918093F10089918093F100ED
:1003D00089918093F10089918093F10089918093B4
:1003E000F10089918093F10089918093F1008991C6
:1003F0008093F10089918093F10089918093F100BD
:1004000089918093F10089918093F1008991809383
:10041000F10089918093F10089918093F100899195
:100420008093F10089918093F10089918093F1008C
:1004300089918093F10089918093F1008991809353
:10044000F10089918093F10089918093F100899165
:100450008093F10089918093F10089918093F1005C
:1004600089918093F10089918093F1008991809323
:10047000F10089918093F10089918093F100899135
:100480008093F10089918093F10089918093F1002C
:1004900089918093F10089918093F10089918093F3
:1004A000F10089918093F10089918093F100899105
:1004B0008093F10089918093F10089918093F100FC
:1004C00089918093F10089918093F10089918093C3
:1004D000F10089918093F10089918093F1008991D5
:1004E0008093F10089918093F10089918093F100CC
:1004F00089918093F10089918093F1008991809393
:10050000F10089918093F10089918093F1008991A4
:100510008093F10089918093F10089918093F1009B
:1005200089918093F10089918093F1008991809362
:10053000F1008091E80085FD02C05093E800621B45
:100540007109A0930A013FBF04C0B4E040E45AE33C
:10055000A5E06115710509F0F9CE80E001C08FEFCB
:10056000DF91CF9108951F920F920FB60F92112431
:100570008F939F938091E1001092E100982F83FF69
:1005800011C01092E90081E08093EB001092EC0022
:1005900082E18093ED0088E08093F00010920801E2
:1005A0001092090192FF13C080910801882379F00D
:1005B00080910A01882359F0815080930A01882391
:1005C00031F484E08093E9008AE38093E8009F910E
:1005D0008F910F900FBE0F901F9018951F920F9242
:1005E0000FB60F920BB60F9211240F931F932F93F8
:1005F0003F934F935F936F937F938F939F93AF93AB
:10060000BF93EF93FF931092E9008091E80083FF7E
:100610003CC14091F1003091F1008091F100682FD0
:1006200070E02091F100922F80E0682B792B80916F
:10063000F100A82FB0E02091F100922F80E0A82BCC
:10064000B92B1091F1000091F10082EF8093E80046
:10065000363009F05AC021E231E0A901455050403E
:10066000F9013797859194918617970701F5FA015B
:10067000859194918A179B07D1F49A012E5F3F4F81
:10068000F901659174912E5F3F4FF9014491212F3B
:1006900030E0902F80E0282B392B2F3F310519F0C7
:1006A00010F02FEF30E0241758F4422F09C0295FD3
:1006B0003F4F495F5F4FF1E02B343F0789F6E5C0BC
:1006C0005EEF8091E800282F30E0C90185709070BE
:1006D000892BB9F322FDDCC0342F413108F030E121
:1006E000232FCB0106C0FC010196E491E093F100B9
:1006F00021502223C1F7630F711D431B5093E80063
:100700004423F9F63031E9F2C3C0353061F48EEF9D
:100710008093E8008091E80080FFFCCF862F8068FE
:100720008093E300B5C0393051F5442309F0ADC0E2
:10073000609308011092090110920A018EEF8093D4
:10074000E80084E491E021E02093E900FC010196B7
:10075000E491E093EB00EE2369F0AC014F5F5F4F53
:10076000FC0184918093EC00CA010196FA01349156
:100770003093ED002F5F253039F78EE181C038309E
:1007800061F4403809F081C08091E80080FFFCCF1F
:10079000809108018093F10050C0313289F4413AD0
:1007A00009F073C08091E80080FFFCCFE0E0F1E049
:1007B00081918093F10081E0E730F807C9F73DC0EF
:1007C0003032A1F4413209F060C08091E80082FF2C
:1007D000FCCFE0E0F1E08091F100819381E0E7302F
:1007E000F807C9F78BEF8093E80027C0323251F445
:1007F000413209F04AC0609309018091E80080FF0E
:10080000FCCF1BC03323E9F48091E80080FFFCCFCC
:10081000423811F080E00DC0A093E9008091EB0018
:1008200090E025E0969587952A95E1F781701092E2
:10083000E9008093F1001092F1008EEF8093E800C0
:1008400027C0313011F0333001F54230F1F4672B1D
:10085000E1F42A2F2F77822F81508430B0F48EEF6D
:100860008093E8002093E900333079F089E18093A8
:10087000EB0081E090E002C0880F991F2A95E2F713
:100880008093EA001092EA0003C081E28093EB00BB
:10089000FF91EF91BF91AF919F918F917F916F9158
:1008A0005F914F913F912F911F910F910F900BBE30
:1008B0000F900FBE0F901F901895EAE7F0E096E8B2
:1008C0009083982F9072906890937B008F71862B05
:1008D00080937C0010920C0110920D018EEE8083AB
:1008E0007894089580910C01E0910D018E17D1F359
:1008F0008E2F8F5F823308F080E0E82FF0E0EE0F5C
:10090000FF1FE25FFE4F2081318180930D01C901FD
:1009100008951F920F920FB60F920BB60F921124EB
:100920002F933F938F939F93EF93FF9320917800A2
:100930003091790090910C019F5F923308F090E024
:1009400080910D01981751F0E92FF0E0EE0FFF1F95
:10095000E25FFE4F3183208390930C01FF91EF9172
:100960009F918F913F912F910F900BBE0F900FBED3
:0A0970000F901F901895F894FFCF28
:08097A0000E10000000008008C
:00000001FF
