:10000000BAC00000D3C00000D1C00000CFC00000C3
:10001000CDC00000CBC00000C9C00000C7C00000B8
:10002000C5C00000C3C0000051C100008AC100006B
:10003000BDC00000BBC00000B9C00000B7C00000D8
:10004000B5C00000B3C00000B1C00000AFC00000E8
:10005000ADC00000ABC00000A9C00000A7C00000F8
:10006000A5C00000A3C00000A1C000009FC0000008
:100070009DC00000FDC2000099C0000097C00000B4
:1000800095C0000093C0000091C000008FC0000028
:100090008DC000008BC0000089C0000087C0000038
:1000A00085C0000083C0000081C000000001000086
:1000B000E0001200020000F20043000300003501DE
:1000C0000401030904390114020309044F01160352
:1000D00003090467010C0001C11201803601813659
:1000E0001201000202000010C0167A040001010291
:1000F000030109024300020100C0320904000001AB
:10010000020201000524001001052401010104245C
:1001100002060524060001070582031000400904B9
:100120000100020A00000007050302400000070565
:10013000840240000004030904140359006F007591
:1001400000720020004E0061006D00650000001686
:1001500003550053004200200053006500720069FF
:100160000061006C0000000C0331003200330034E9
:1001700000350000000011241FBECFEFDAE0DEBF23
:10018000CDBF11E0A0E0B1E0E0EDF6E002C00590E7
:100190000D92A830B107D9F711E0A8E0B1E001C095
:1001A0001D92A231B107E1F788D090C229CF84B166
:1001B000806F84B98AB183608AB993EA94BD81E083
:1001C00085BD9093B0008093B10091EA9093800038
:1001D00089E0809381001092820090939000809338
:1001E00091001092920008951F93CF93DF93CFEF69
:1001F000D0E01FEF80E060E40FD223D29C01843670
:10020000910510F418BC16C0883C910510F418BC78
:100210001BC081E02C32380710F418BC1FC081E0ED
:100220002039380710F418BC25C081E0243F380776
:1002300030F418BD10928900109288002BC082E023
:100240002835380730F418BD1092890010928800C4
:100250002FC082E02C3B380740F418BD1092890073
:10026000109288001093B30017C083E02032380743
:1002700040F418BD10928900109288001093B300CA
:1002800019C083E02438380750F418BCD093890093
:10029000C09388001092B3001092B400ABCF285ED8
:1002A000334008F0A7CF18BCD0938900C0938800D2
:1002B0001092B3001093B4009DCF80E8809361004A
:1002C00082E08093610073DF8FDFFECF1F920F9279
:1002D0000FB60F9211248F939F938091E10010929B
:1002E000E100982F83FF11C01092E90081E0809314
:1002F000EB001092EC0082E18093ED0088E08093A7
:10030000F000109208011092090192FF13C0809131
:100310000801882379F080910A01882359F08150DF
:1003200080930A01882331F484E08093E9008AE312
:100330008093E8009F918F910F900FBE0F901F90B8
:1003400018951F920F920FB60F9211240F931F93BF
:100350002F933F934F935F936F937F938F939F93CD
:10036000AF93BF93EF93FF931092E9008091E80061
:1003700083FF3CC14091F1003091F1008091F10088
:10038000682F70E02091F100922F80E0682B792B8C
:100390008091F100A82FB0E02091F100922F80E031
:1003A000A82BB92B1091F1000091F10082EF8093FE
:1003B000E800363009F05AC023EB30E0A90145507F
:1003C0005040F9013797859194918617970701F569
:1003D000FA01859194918A179B07D1F49A012E5FB7
:1003E0003F4FF901659174912E5F3F4FF9014491A0
:1003F000212F30E0902F80E0282B392B2F3F310523
:1004000019F010F02FEF30E0241758F4422F09C0F4
:10041000295F3F4F495F5F4FF0E02D3D3F0789F671
:10042000E5C05EEF8091E800282F30E0C9018570BB
:100430009070892BB9F322FDDCC0342F413108F0D4
:1004400030E1232FCB0106C0FC010196E491E0933B
:10045000F10021502223C1F7630F711D431B5093FC
:10046000E8004423F9F63031E9F2C3C0353061F4D5
:100470008EEF8093E8008091E80080FFFCCF862F0C
:1004800080688093E300B5C0393051F5442309F00A
:10049000ADC0609308011092090110920A018EEF1D
:1004A0008093E80086ED90E021E02093E900FC01D4
:1004B0000196E491E093EB00EE2369F0AC014F5F0D
:1004C0005F4FFC0184918093EC00CA010196FA0110
:1004D00034913093ED002F5F253039F78EE181C0E4
:1004E000383061F4403809F081C08091E80080FF25
:1004F000FCCF809108018093F10050C0313289F423
:10050000413A09F073C08091E80080FFFCCFE0E041
:10051000F1E081918093F10081E0E730F807C9F7BD
:100520003DC03032A1F4413209F060C08091E80052
:1005300082FFFCCFE0E0F1E08091F100819381E067
:10054000E730F807C9F78BEF8093E80027C0323215
:1005500051F4413209F04AC0609309018091E800EA
:1005600080FFFCCF1BC03323E9F48091E80080FFBB
:10057000FCCF423811F080E00DC0A093E9008091DB
:10058000EB0090E025E0969587952A95E1F781703C
:100590001092E9008093F1001092F1008EEF8093A9
:1005A000E80027C0313011F0333001F54230F1F46A
:1005B000672BE1F42A2F2F77822F81508430B0F4FB
:1005C0008EEF8093E8002093E900333079F089E1E1
:1005D0008093EB0081E090E002C0880F991F2A957C
:1005E000E2F78093EA001092EA0003C081E2809370
:1005F000EB00FF91EF91BF91AF919F918F917F9110
:100600006F915F914F913F912F911F910F910F909B
:100610000FBE0F901F901895EAE7F0E096E89083E0
:10062000982F9072906890937B008F71862B8093A7
:100630007C0010920C0110920D018EEE8083789454
:10064000089580910C01E0910D018E17D1F38E2F4A
:100650008F5F823008F080E0E82FF0E0EE0FFF1FA0
:10066000E25FFE4F2081318180930D01C901089521
:100670001F920F920FB60F9211242F933F938F93D7
:100680009F93EF93FF9320917800309179009091A0
:100690000C019F5F923008F090E080910D01981757
:1006A00051F0E92FF0E0EE0FFF1FE25FFE4F3183C4
:1006B000208390930C01FF91EF919F918F913F9137
:1006C0002F910F900FBE0F901F901895F894FFCFA9
:0806D00000E100000000080039
:00000001FF
