:10000000D0C00000E9C00000E7C00000E5C000006B
:10001000E3C00000E1C00000DFC00000DDC0000060
:10002000DBC00000D9C000002EC3000066C3000082
:10003000D3C00000D1C00000CFC00000CDC0000080
:10004000CBC00000C9C00000C7C00000C5C0000090
:10005000C3C00000C1C00000BFC00000BDC00000A0
:10006000BBC00000B9C00000B7C00000B5C00000B0
:10007000B3C00000DDC00000AFC00000ADC0000094
:10008000ABC00000A9C00000A7C00000A5C00000D0
:10009000A3C00000A1C000009FC000009DC00000E0
:1000A0009BC0000099C0000097C0000045766572B3
:1000B000797468696E6720496E697469616C697AE0
:1000C00065642100494E56414C49445F434F4D4DB4
:1000D000414E445F434F444500000100000D0112B2
:1000E000000200001F01430003000062010401033D
:1000F0000904660114020309047C011603030904C0
:1001000094010C0001C112018036018136120100F8
:100110000202000010C0167A040001010203010966
:10012000024300020100C032090400000102020182
:100130000005240010010524010101042402060524
:100140002406000107058203100040090401000293
:100150000A00000007050302400000070584024072
:10016000000004030904140359006F0075007200B5
:1001700020004E0061006D00650000001603550070
:1001800053004200200053006500720069006100C6
:100190006C0000000C0331003200330034003500E5
:1001A000000011241FBECFEFDAE0DEBFCDBF11E0AB
:1001B000A0E0B1E0E6E0FAE002C005900D92AA30BE
:1001C000B107D9F711E0AAE0B1E001C01D92A43156
:1001D000B107E1F781D115C413CFEAE7F0E096E863
:1001E0009083982F9072906890937B008F71862BEC
:1001F00080937C0010920A0110920B018EEE808396
:100200007894089590910A0180910B019817D1F389
:100210008F5F823008F080E0E82FF0E0EE0FFF1FE4
:10022000E45FFE4F2081318180930B01C901089565
:100230001F920F920FB60F9211242F933F938F931B
:100240009F93EF93FF938091780090917900209194
:100250000A012F5F223008F020E030910B012317B4
:1002600051F0E22FF0E0EE0FFF1FE45FFE4F9183AD
:10027000808320930A01FF91EF919F918F913F918D
:100280002F910F900FBE0F901F9018951F93DF9323
:10029000CF930F92CDB7DEB760E49FDFB3DF182FA7
:1002A0009983ACD1812F99810F90CF91DF911F91CC
:1002B0000895282F392FC90123E08F3D920714F0AC
:1002C0008EED93E02AE030E0B90174D3462F862FFB
:1002D000972FB9016FD386EF869F802D1124840F4D
:1002E000479A65B9479885B9089584B1806F84B9F4
:1002F0008AB183608AB993EA94BD81E085BD909309
:10030000B0008093B10091EA9093800089E08093DF
:10031000810010928200909390008093910010923F
:1003200092000895843021F1853048F4813091F0B5
:10033000813070F0823081F08330A9F513C08630AF
:10034000E9F08630C0F08730F9F0883061F522C0DE
:1003500067BD25C068BD23C070E0709389006093BD
:1003600088001DC070E070938B0060938A0017C0F6
:100370006093B30014C06093B40011C070E0709338
:100380009900609398000BC070E070939B0060939D
:100390009A0005C070E070939D0060939C0080E01F
:1003A0002DD18AE02BC108951F93DF93CF930F9235
:1003B000CDB7DEB7182F89E0698320D1812F1ED1F8
:1003C0006981662359F085B121E030E002C0220F37
:1003D000331F1A95E2F7822B85B90BC085B121E056
:1003E00030E002C0220F331F1A95E2F72095282330
:1003F00025B980E003D18AE001D10F90CF91DF9140
:100400001F9108951F93182F80E0F8D0112341F019
:1004100081E090E0909301018093000180E005C0AD
:10042000109201011092000181E0E8D08AE0E6D04C
:100430001F910895CF93DF93EC01FE0121968491E3
:10044000882311F0DBD0F9CFDF91CF910895FC0123
:100450006623D1F08081843061F0853018F48823E0
:1004600031F00FC0873041F0893059F407C08181E5
:10047000C9CF8181628156CF818108CF818162811C
:1004800093CF84EC90E0D6CF08950F931F93CF9332
:10049000DF93EC01062F10E015C07FD09C018FEF99
:1004A0002F3F380749F02D30310581F02A303105D2
:1004B00069F029931F5F06C06DD0882331F0E0D02A
:1004C00080FF03C0101748F301C01FEF812FDF9199
:1004D000CF911F910F9108950F931F93DF93CF93A7
:1004E000CDB7DEB7A0970FB6F894DEBF0FBECDBF75
:1004F00080E88093610082E080936100F6DE31D075
:1005000049D08823E9F380E197E220E931E0F9015D
:100510003197F1F70197D9F702C05DD003C08E0182
:100520000F5F1F4FADD080FFF8CF8CEA90E082DFE5
:10053000C80160E2AADF682F8F3FA1F3C80187DFFF
:100540008091000190910101009791F380E09EDE7F
:1005500081E09CDEAEDEECCF8091E80080FFFCCF36
:10056000089581E08093D70080EA8093D80082E1EB
:1005700089BD09B400FEFDCF80E98093D8001092B8
:10058000E00010921001109211018CE08093E200C3
:10059000789408958091100108958FB7F894909100
:1005A0001001992339F093E09093E9009091E800CD
:1005B00095FD04C08FBF2FEF3FEF0BC02091F100DE
:1005C0009091E80095FD03C09BE69093E8008FBFF3
:1005D00030E0C901089580911001882371F08FB730
:1005E000F89493E09093E9009BE602C09093E800B2
:1005F0002091E80025FDFACF8FBF0895909110015A
:100600009923D1F19FB7F89424E02093E900209139
:100610001301222341F02091E80025FD02C09FBF75
:100620002BC0109213012091E400275E34E040912A
:10063000E80045FD12C09FBF9091E400921721F49D
:1006400081E08093130118C0909110019923B1F0BB
:100650009FB7F8943093E900EACF8093F10080913E
:10066000E80085FD03C08AE38093E80085E080937D
:1006700012019FBF80E008958FEF08958FEF0895D6
:100680008091110108951F920F920FB60F921124BD
:100690008F939F938091E1001092E10083FF11C03E
:1006A0001092E90091E09093EB001092EC0092E13F
:1006B0009093ED0098E09093F0001092100110924A
:1006C000110182FF13C080911001882379F080917D
:1006D0001201882359F0815080931201882331F44C
:1006E00084E08093E9008AE38093E8009F918F91F2
:1006F0000F900FBE0F901F9018951F920F920FB67C
:100700000F921124EF92FF920F931F932F933F9319
:100710004F935F936F937F938F939F93AF93BF9309
:10072000EF93FF93DF93CF930F92CDB7DEB7109285
:10073000E9008091E80083FF22C12091F10030910F
:10074000F1008091F100E82EFF244091F100942FF8
:1007500080E0E82AF92A0091F10010E04091F100D0
:10076000942F80E0082B192B4091F100A091F1000B
:1007700082EF8093E800363009F052C080EE90E0BE
:10078000FC013797259134912E153F05E9F4FC01C2
:1007900035972591349120173107B1F4FC01339737
:1007A000259134910197FC01849150E07A2F60E00B
:1007B000462B572B4F3F510519F010F04FEF50E0EB
:1007C000481740F4842F06C00796F1E08A309F074F
:1007D000B9F6D5C0AEEF4091E80050E0BA016570BF
:1007E000707061157105B9F342FDCCC0982F81314D
:1007F00008F090E1A901692F07C0FA014F5F5F4F30
:10080000E491E093F10061506623B9F7290F311D9F
:10081000891BA093E8008823F1F69031E1F2B2C081
:10082000353049F48EEF8093E80096DE8E2D806897
:100830008093E300A7C0393051F5222309F09FC00F
:10084000E092100110921101109212018EEF80932C
:10085000E80041E083E091E04093E900FC0101966B
:10086000E491E093EB00EE2369F09C012F5F3F4F92
:10087000FC0184918093EC00C9010196F901249157
:100880002093ED004F5F453039F78EE173C038306B
:1008900049F4203809F073C05FDE80911001809325
:1008A000F10045C0313271F4213A09F068C054DEDC
:1008B000E2E0F1E081918093F10021E0E930F2077C
:1008C000C9F735C03032A1F4213209F058C0809107
:1008D000E80082FFFCCFE2E0F1E08091F10081933B
:1008E00031E0E930F307C9F78BEF8093E8001FC0D0
:1008F000323239F4213209F042C0E09211012CDE8B
:1009000016C03323C1F4298327DE2981223851F40C
:100910000093E9009091EB0081E095FF80E0109258
:10092000E90001C080E08093F1001092F1008EEFA9
:100930008093E80027C0313011F0333001F52230C8
:10094000F1F4E114F104D9F40F77802F8150843051
:10095000B0F48EEF8093E8000093E900333079F033
:1009600089E18093EB0081E090E002C0880F991F3D
:100970000A95E2F78093EA001092EA0003C081E250
:100980008093EB000F90CF91DF91FF91EF91BF919A
:10099000AF919F918F917F916F915F914F913F9117
:1009A0002F911F910F91FF90EF900F900FBE0F901E
:1009B0001F90189597FB092E07260AD077FD04D0C3
:1009C0000CD006D000201AF4709561957F4F0895E1
:1009D000F6F7909581959F4F0895AA1BBB1B51E197
:1009E00007C0AA1FBB1FA617B70710F0A61BB70B9F
:1009F000881F991F5A95A9F780959095BC01CD0144
:060A00000895F894FFCFF9
:0A0A0600010000E1000000000800FC
:00000001FF
