:1000000016C1000031C100002FC100002DC1000049
:100010002BC1000029C1000027C1000025C100003C
:1000200023C1000021C10000A7C60000E0C60000F7
:100030001BC1000019C1000017C1000015C100005C
:1000400013C1000011C100000FC100000DC100006C
:100050000BC1000009C1000007C1000005C100007C
:1000600003C1000001C10000FFC00000FDC000008E
:10007000FBC000000C949208F7C00000F5C000001F
:10008000F3C00000F1C00000EFC00000EDC00000B0
:10009000EBC00000E9C000009F069C06990696068A
:1000A000930690068D068A068706840681067E06DC
:1000B0007B067806750672066F066C06690666068C
:1000C000630660065D065A065706540651064E063C
:1000D0004B064806450642063F063C0639063606EC
:1000E000330630062D062A062706240621061E069C
:1000F0001B061806150612060F060C06090606064C
:1001000003060006FD05FA05F705F405F105EE0501
:10011000EB05E805E505E205DF05494E56414C498A
:10012000445F434F4D4D414E445F434F444500763D
:10013000203D3E2076657273696F6E0D0A000102E4
:100140000304050607080A0057616D736572204CA9
:10015000616D7020436F6E74726F6C6C65722031CC
:100160002E300A000001000098011200020000AACF
:10017000014300030000ED010401030904F101142F
:1001800002030904070216030309041F020C0001FD
:10019000C1120180360181361201000202000010F6
:1001A000C0167A04000101020301090243000201A2
:1001B00000C0320904000001020201000524001001
:1001C000010524010101042402060524060001079B
:1001D00005820310004009040100020A0000000724
:1001E00005030240000007058402400000040309E3
:1001F00004140359006F007500720020004E006166
:10020000006D0065000000160355005300420020F9
:1002100000530065007200690061006C0000000C72
:100220000331003200330034003500000000112497
:100230001FBECFEFD0E2DEBFCDBF11E0A0E0B1E046
:10024000ECE8F1E100E00BBF02C007900D92AA3983
:10025000B107D9F711E0AAE9B1E001C01D92A43AB3
:10026000B107E1F79ED390C7CBCE84B1806F84B93C
:1002700087B1806787B98AB183608AB993EA94BDF0
:1002800081E085BD9093B0008093B10091EA909396
:10029000800089E08093810010928200909390000A
:1002A000809391001092920008950F931F93CF9323
:1002B000DF93EC01062F10E014C0BFD32FEF8F3F68
:1002C000920749F08D30910581F08A30910569F0EF
:1002D00089931F5F06C0AED3882331F04AD580FFD3
:1002E00003C0101750F301C01FEF812FDF91CF9192
:1002F0001F910F910895CF93DF93EC01FE0121969A
:100300008491882311F0CBD3F9CFDF91CF91089559
:1003100088E491E0F0CF83E0C2D380E0C0D38EE3E5
:1003200091E0E9CF0F931F93CF93DF93062FEC015A
:1003300011E003C08881B3D31F5F21961017D0F35B
:100340008AE0ADD3DF91CF911F910F9108950F9364
:100350001F93182F062F84E0A2D3812FA0D314302F
:1003600031F1153048F4113091F0113070F0123045
:1003700081F01330B9F514C01630F9F01630D0F012
:10038000173011F1183071F526C007BD2DC008BD1A
:100390002BC0802F90E0909389008093880024C028
:1003A000802F90E090938B0080938A001DC0009373
:1003B000B3001AC00093B40017C0802F90E0909350
:1003C00099008093980010C0802F90E090939B003C
:1003D00080939A0009C0802F90E090939D008093B5
:1003E0009C0002C081E001C080E059D38AE057D36D
:1003F0001F910F910895DF92EF92FF920F931F9339
:10040000DF93CF9300D000D0CDB7DEB7182F87E0B1
:1004100046D3812F44D3133009F4FAC0143038F492
:10042000113009F45DC0123008F0A6C00DC01530BF
:1004300009F486C1153008F437C1163009F4CCC16F
:10044000173009F061C214C280E060E43FD688E84A
:1004500093E120E931E0F9013197F1F70197D9F7FC
:1004600001E010E0F0E2DF2E7E010894E11CF11CB7
:1004700042D69C01892F9927482F4F708F7090701A
:100480000A9718F4542F505D02C0542F595CC901CB
:1004900074E0969587957A95E1F7482F4F708F70A5
:1004A00090700A9718F4842F805D02C0842F895CB5
:1004B000922F9F702F7030702A30310510F4905DAC
:1004C00001C0995C9B83DC828A835983C70164E005
:1004D00070E027D30F5F1F4F0A30110549F616C28F
:1004E00081E060E4F3D588E893E120E931E0F901A7
:1004F0003197F1F70197D9F701E010E060E2D62ECD
:100500007E010894E11CF11CF6D59C01892F9927E6
:10051000482F4F708F7090700A9718F4542F505DC9
:1005200002C0542F595CC90144E0969587954A95BD
:10053000E1F7482F4F708F7090700A9718F4842F4E
:10054000805D02C0842F895C922F9F702F70307065
:100550002A30310510F4905D01C0995C9B83DC82E8
:100560008A835983C70164E070E0DBD20F5F1F4FBD
:100570000A30110549F6CAC182E060E4A7D588E8CF
:1005800093E120E931E0F9013197F1F70197D9F7CB
:1005900001E010E080E2D82E7E010894E11CF11CFD
:1005A000AAD59C01892F9927482F4F708F70907082
:1005B0000A9718F4542F505D02C0542F595CC9019A
:1005C000A4E096958795AA95E1F7482F4F708F7014
:1005D00090700A9718F4842F805D02C0842F895C84
:1005E000922F9F702F7030702A30310510F4905D7B
:1005F00001C0995C9B83DC828A835983C70164E0D4
:1006000070E08FD20F5F1F4F0A30110549F67EC18F
:1006100083E060E45BD588E893E120E931E0F9010B
:100620003197F1F70197D9F701E010E0F0E2DF2E02
:100630007E010894E11CF11C5ED59C01892F99274D
:10064000482F4F708F7090700A9718F4542F505D98
:1006500002C0542F595CC90174E0969587957A952C
:10066000E1F7482F4F708F7090700A9718F4842F1D
:10067000805D02C0842F895C922F9F702F70307034
:100680002A30310510F4905D01C0995C9B83DC82B7
:100690008A835983C70164E070E043D20F5F1F4F24
:1006A0000A30110549F632C184E060E40FD588E8CC
:1006B00093E120E931E0F9013197F1F70197D9F79A
:1006C00001E010E060E2D62E7E010894E11CF11CEE
:1006D00012D59C01892F9927482F4F708F709070E9
:1006E0000A9718F4542F505D02C0542F595CC90169
:1006F00044E0969587954A95E1F7482F4F708F70A3
:1007000090700A9718F4842F805D02C0842F895C52
:10071000922F9F702F7030702A30310510F4905D49
:1007200001C0995C9B83DC828A835983C70164E0A2
:1007300070E0F7D10F5F1F4F0A30110549F6E6C090
:1007400085E060E4C3D488E893E120E931E0F90171
:100750003197F1F70197D9F701E010E080E2D82E48
:100760007E010894E11CF11CC6D49C01892F9927B5
:10077000482F4F708F7090700A9718F4542F505D67
:1007800002C0542F595CC901A4E096958795AA959B
:10079000E1F7482F4F708F7090700A9718F4842FEC
:1007A000805D02C0842F895C922F9F702F70307003
:1007B0002A30310510F4905D01C0995C9B83DC8286
:1007C0008A835983C70164E070E0ABD10F5F1F4F8C
:1007D0000A30110549F69AC086E060E477D488E8CB
:1007E00093E120E931E0F9013197F1F70197D9F769
:1007F00001E010E0F0E2DF2E7E010894E11CF11C24
:100800007AD49C01892F9927482F4F708F70907050
:100810000A9718F4542F505D02C0542F595CC90137
:1008200074E0969587957A95E1F7482F4F708F7011
:1008300090700A9718F4842F805D02C0842F895C21
:10084000922F9F702F7030702A30310510F4905D18
:1008500001C0995C9B83DC828A835983C70164E071
:1008600070E05FD10F5F1F4F0A30110549F64EC08F
:1008700087E060E42BD488E893E120E931E0F901D6
:100880003197F1F70197D9F701E010E060E2D62E39
:100890007E010894E11CF11C2ED49C01892F99271C
:1008A000482F4F708F7090700A9718F4542F505D36
:1008B00002C0542F595CC90144E0969587954A952A
:1008C000E1F7482F4F708F7090700A9718F4842FBB
:1008D000805D02C0842F895C922F9F702F703070D2
:1008E0002A30310510F4905D01C0995C9B83DC8255
:1008F0008A835983C70164E070E013D10F5F1F4FF3
:100900000A30110549F602C081E0C9D08AE0C7D09B
:100910000F900F900F900F90CF91DF911F910F913B
:10092000FF90EF90DF900895FC01662319F480E0BA
:1009300091E036C08081813761F1823738F48736A3
:1009400011F1883651F08F3331F507C08637D1F079
:100950008A37D9F08337F9F419C083E091E0CBDC12
:1009600086E291E0C8DC8FE291E0C5DC87E591E0AA
:10097000C2DC83E691E0BFDC80E791E0BCDC8FE77E
:1009800091E00EC0C5CCCF01CDCCC5CC81816281B8
:10099000DECC818130CD8AE191E0ADDC86E291E070
:1009A000AACC0F931F93DF93CF93CDB7DEB7A09759
:1009B0000FB6F894DEBF0FBECDBF80E88093610014
:1009C00082E08093610051DC1CD034D08823E9F3AD
:1009D00080E197E220E931E0F9013197F1F70197E1
:1009E000D9F78E010F5F1F4FC4D180FFFDCF44D0D8
:1009F000C80160E25ADC682F8F3FB1F3C80194DF71
:100A0000F7CF81E88093D70080EA8093D80086E111
:100A100089BD09B400FEFDCF80E98093D800109213
:100A2000E00010929A0110929B018CE08093E2000A
:100A30007894089580919A0108952FB7F894809141
:100A40009A01882339F083E08093E9008091E800DF
:100A500085FD04C02FBF2FEF3FEF0CC09091F10038
:100A60008091E80085FD03C08BE68093E8002FBFEE
:100A7000292F30E0C901089580919A01882371F0EF
:100A80009FB7F89483E08093E9002BE602C020939F
:100A9000E8008091E80085FDFACF9FBF0895482FB8
:100AA00080919A018823D9F12FB7F89484E080933C
:100AB000E90080919D01882341F08091E80085FD47
:100AC00002C02FBF12C010929D019091E400975E6A
:100AD00034E08091E80085FD13C02FBF8091E400D1
:100AE000891729F481E080939D018FEF089580910B
:100AF0009A018823A1F02FB7F8943093E900E9CF49
:100B00004093F1008091E80085FD03C08AE3809363
:100B1000E80085E080939C012FBF80E008958FEF6F
:100B20000895CF93DF93EC0180919A01882309F413
:100B30001CC13FB7F89484E08093E90080919D0147
:100B4000882309F407C18091E80085FD02C03FBFFA
:100B50000CC110929D01FEC09091E400975E8091BF
:100B6000E80085FD13C03FBF8091E400891721F4A0
:100B700081E080939D01F9C080919A01882309F456
:100B8000F4C03FB7F8945093E900E9CF8091F200A8
:100B90002A2F281B822F90E06817790708F4262F48
:100BA000822F90E08134910508F0C6C0845B9F4F8E
:100BB000FC01EE0FFF1F0590F491E02D099489913F
:100BC0008093F10089918093F10089918093F100E5
:100BD00089918093F10089918093F10089918093AC
:100BE000F10089918093F10089918093F1008991BE
:100BF0008093F10089918093F10089918093F100B5
:100C000089918093F10089918093F100899180937B
:100C1000F10089918093F10089918093F10089918D
:100C20008093F10089918093F10089918093F10084
:100C300089918093F10089918093F100899180934B
:100C4000F10089918093F10089918093F10089915D
:100C50008093F10089918093F10089918093F10054
:100C600089918093F10089918093F100899180931B
:100C7000F10089918093F10089918093F10089912D
:100C80008093F10089918093F10089918093F10024
:100C900089918093F10089918093F10089918093EB
:100CA000F10089918093F10089918093F1008991FD
:100CB0008093F10089918093F10089918093F100F4
:100CC00089918093F10089918093F10089918093BB
:100CD000F10089918093F10089918093F1008991CD
:100CE0008093F10089918093F10089918093F100C4
:100CF00089918093F10089918093F100899180938B
:100D0000F10089918093F10089918093F10089919C
:100D10008093F10089918093F10089918093F10093
:100D200089918093F10089918093F100899180935A
:100D3000F10089918093F10089918093F100809175
:100D4000E80085FD02C0B093E800621B7109409382
:100D50009C0104C054E0A0E4BAE345E061157105CC
:100D600009F0FACE3FBF80E001C08FEFDF91CF9155
:100D7000089580919B0108951F920F920FB60F92D4
:100D800011248F939F938091E1001092E100982F9E
:100D900083FF11C01092E90081E08093EB00109274
:100DA000EC0082E18093ED0088E08093F0001092E7
:100DB0009A0110929B0192FF13C080919A0188239F
:100DC00079F080919C01882359F0815080939C0197
:100DD000882331F484E08093E9008AE38093E8007B
:100DE0009F918F910F900FBE0F901F9018951F929B
:100DF0000F920FB60F920BB60F9211240F931F9301
:100E00002F933F934F935F936F937F938F939F9312
:100E1000AF93BF93EF93FF931092E9008091E800A6
:100E200083FF3CC14091F1003091F1008091F100CD
:100E3000682F70E02091F100922F80E0682B792BD1
:100E40008091F100A82FB0E02091F100922F80E076
:100E5000A82BB92B1091F1000091F10082EF809343
:100E6000E800363009F05AC02BE631E0A9014550C0
:100E70005040F9013797859194918617970701F5AE
:100E8000FA01859194918A179B07D1F49A012E5FFC
:100E90003F4FF901659174912E5F3F4FF9014491E5
:100EA000212F30E0902F80E0282B392B2F3F310568
:100EB00019F010F02FEF30E0241758F4422F09C03A
:100EC000295F3F4F495F5F4FF1E025393F0789F6C2
:100ED000E5C05EEF8091E800282F30E0C901857001
:100EE0009070892BB9F322FDDCC0342F413108F01A
:100EF00030E1232FCB0106C0FC010196E491E09381
:100F0000F10021502223C1F7630F711D431B509341
:100F1000E8004423F9F63031E9F2C3C0353061F41A
:100F20008EEF8093E8008091E80080FFFCCF862F51
:100F300080688093E300B5C0393051F5442309F04F
:100F4000ADC060939A0110929B0110929C018EEFAC
:100F50008093E8008EE891E021E02093E900FC0115
:100F60000196E491E093EB00EE2369F0AC014F5F52
:100F70005F4FFC0184918093EC00CA010196FA0155
:100F800034913093ED002F5F253039F78EE181C029
:100F9000383061F4403809F081C08091E80080FF6A
:100FA000FCCF80919A018093F10050C0313289F4D6
:100FB000413A09F073C08091E80080FFFCCFE3E97B
:100FC000F1E081918093F10081E0EA39F807C9F7F7
:100FD0003DC03032A1F4413209F060C08091E80098
:100FE00082FFFCCFE3E9F1E08091F100819381E0A1
:100FF000EA39F807C9F78BEF8093E80027C032324F
:1010000051F4413209F04AC060939B018091E8009D
:1010100080FFFCCF1BC03323E9F48091E80080FF00
:10102000FCCF423811F080E00DC0A093E900809120
:10103000EB0090E025E0969587952A95E1F7817081
:101040001092E9008093F1001092F1008EEF8093EE
:10105000E80027C0313011F0333001F54230F1F4AF
:10106000672BE1F42A2F2F77822F81508430B0F440
:101070008EEF8093E8002093E900333079F089E126
:101080008093EB0081E090E002C0880F991F2A95C1
:10109000E2F78093EA001092EA0003C081E28093B5
:1010A000EB00FF91EF91BF91AF919F918F917F9155
:1010B0006F915F914F913F912F911F910F910F90E1
:1010C0000BBE0F900FBE0F901F901895EAE7F0E04F
:1010D00096E89083982F9072906890937B008F7120
:1010E000862B80937C0010929E0110929F018EEEC1
:1010F00080837894089580919E01E0919F018E17DE
:10110000D1F38E2F8F5F823008F080E0E82FF0E07F
:10111000EE0FFF1FE056FE4F2081318180939F012B
:10112000C90108951F920F920FB60F920BB60F923E
:1011300011242F933F938F939F93EF93FF932091CD
:1011400078003091790090919E019F5F923008F075
:1011500090E080919F01981751F0E92FF0E0EE0F99
:10116000FF1FE056FE4F3183208390939E01FF9135
:10117000EF919F918F913F912F910F900BBE0F9008
:0C1180000FBE0F901F901895F894FFCF41
:10118C000D0A005B206D6F746F722E63205D2073EF
:10119C006B2C20323031302D30362D32382C31370B
:1011AC003A31310D0A0066696C653A206D6F746FC7
:1011BC00722E6320636F6D70696C6564203A204AEF
:1011CC00756E20323820323031302C2031373A33A2
:1011DC00353A34320D0A0067203D3E2070696E6747
:1011EC000D0A007A203D3E20706F7274730D0A0058
:1011FC0073203D3E207365742050574D0D0A0071CD
:10120C00203D3E2071756572792073656E736F7227
:0A121C000D0A0000E10000000008C8
:00000001FF
