:1000000068C1000083C1000081C100007FC1000001
:100010007DC100007BC1000079C1000077C10000F4
:1000200075C1000073C1000049C5000082C5000011
:100030006DC100006BC1000069C1000067C1000014
:1000400065C1000063C1000061C100005FC1000024
:100050005DC100005BC1000059C1000057C1000034
:1000600055C1000053C1000051C100004FC1000044
:100070004DC10000F9C6000049C1000047C10000A1
:1000800045C1000043C1000041C100003FC1000064
:100090003DC100003BC1000041053E053B05380560
:1000A000350532052F052C052905260523052005D4
:1000B0001D051A051705140511050E050B05080584
:1000C00005050205FF04FC04F904F604F304F0043A
:1000D000ED04EA04E704E404E104DE04DB04D804EC
:1000E000D504D204CF04CC04C904C604C304C0049C
:1000F000BD04BA04B704B404B104AE04AB04A8044C
:10010000A504A2049F049C049904960493049004FB
:100110008D048A04870484048104222C206D757365
:1001200074206265203F206F72203D0D0A00556EDD
:100130006B6E6F776E20636F6D6D616E6420220051
:10014000222C206D7573742062652030206F722020
:10015000310D0A00556E6B6E6F776E2076616C758F
:10016000652022000D0A00222C206D757374206218
:1001700065203020746F20370D0A00556E6B6E6F4E
:10018000776E2070696E202200222C206D757374AA
:100190002062652041202D20460D0A00556E6B6EB1
:1001A0006F776E20706F7274202200756E726563B7
:1001B0006F676E697A656420666F726D61742C205A
:1001C00033206368617273206D696E2072657127D8
:1001D000640D0A00494E56414C49445F434F4D4D12
:1001E000414E445F434F44450001020304050607A6
:1001F000080A004D6F746F7220436F6E74726F6CDB
:100200006C657220312E300A00000100003D0212A0
:10021000000200004F0243000300009202040103A9
:10022000090496021402030904AC0216030309042C
:10023000C4020C0001C11201803601813612010096
:100240000202000010C0167A040001010203010935
:10025000024300020100C032090400000102020151
:1002600000052400100105240101010424020605F3
:100270002406000107058203100040090401000262
:100280000A00000007050302400000070584024041
:10029000000004030904140359006F007500720084
:1002A00020004E0061006D0065000000160355003F
:1002B0005300420020005300650072006900610095
:1002C0006C0000000C0331003200330034003500B4
:1002D000000011241FBECFEFD0E2DEBFCDBF11E082
:1002E000A0E0B1E0E0EDFEE000E00BBF02C007904F
:1002F0000D92A830B107D9F711E0A8E0B1E001C034
:100300001D92A231B107E1F7EED1E0C579CE84B1FB
:10031000806F84B987B1806787B98AB183608AB9F1
:1003200093EA94BD81E085BD9093B0008093B100C5
:1003300091EA9093800089E080938100109282007E
:100340009093900080939100109292000895CF9323
:10035000DF93EC01FE0121968491882311F041D2B4
:10036000F9CFDF91CF91089583E03BD280E039D27D
:1003700089EE91E0ECCFFF920F931F93CF93DF9321
:10038000182F092FF62E82E02CD2212F302FC901F1
:10039000EC0111E003C0888124D21F5F21961F1554
:1003A000D0F38AE01ED2DF91CF911F910F91FF9081
:1003B000089580E016D283EF91E0C9CF0F931F9389
:1003C000182F062F84E00DD2812F0BD2143031F17B
:1003D000153048F4113091F0113070F0123081F086
:1003E0001330B9F514C01630F9F01630D0F01730CC
:1003F00011F1183071F526C007BD2DC008BD2BC006
:10040000802F90E0909389008093880024C0802FF3
:1004100090E090938B0080938A001DC00093B300FE
:100420001AC00093B40017C0802F90E090939900F9
:100430008093980010C0802F90E090939B00809351
:100440009A0009C0802F90E090939D0080939C00BB
:1004500002C081E001C080E0C4D18AE0C2D11F9116
:100460000F9108950F931F93CF93DF93EC01062F05
:1004700010E014C084D12FEF8F3F920749F08D30E8
:10048000910581F08A30910569F089931F5F06C05C
:1004900073D1882331F00FD380FF03C0101750F3BE
:1004A00001C01FEF812FDF91CF911F910F91089510
:1004B000DF92EF92FF920F931F93DF93CF9300D0C1
:1004C00000D0CDB7DEB7182F87E08BD1812F89D12F
:1004D000143009F4B8C0153060F4113009F459C073
:1004E0001130A0F0123009F4A0C0133009F0CAC0D6
:1004F000A3C0163009F4B1C0163008F4A9C01730F3
:1005000009F4B2C0183009F0BDC0B5C080E060E4A5
:100510007FD401E010E0F0E2DF2E7E010894E11CC0
:10052000F11C8BD49C01892F9927482F4F708F7015
:1005300090700A9718F4542F505D02C0542F595CE4
:10054000C90174E0969587957A95E1F7482F4F7029
:100550008F7090700A9718F4842F805D02C0842FEA
:10056000895C922F9F702F7030702A30310510F403
:10057000905D01C0995C9B83DC828A835983C701AB
:1005800064E070E070D10F5F1F4F0A30110549F62B
:100590007BC081E060E43CD488E893E120E931E06D
:1005A000F9013197F1F70197D9F701E010E060E226
:1005B000D62E7E010894E11CF11C3FD49C01892FAA
:1005C0009927482F4F708F7090700A9718F4542F06
:1005D000505D02C0542F595CC90144E0969587953F
:1005E0004A95E1F7482F4F708F7090700A9718F472
:1005F000842F805D02C0842F895C922F9F702F70A2
:1006000030702A30310510F4905D01C0995C9B83F5
:10061000DC828A835983C70164E070E024D10F5FD4
:100620001F4F0A30110549F62FC080E090E09093EB
:1006300089008093880028C080E090E090938B0030
:1006400080938A0021C080E090E08093B3001CC0BA
:1006500080E090E08093B40017C080E090E0909339
:1006600099008093980010C080E090E090939B00E8
:1006700080939A0009C080E090E090939D00809361
:100680009C0002C081E001C080E0ABD08AE0A9D02C
:100690000F900F900F900F90CF91DF911F910F91BE
:1006A000FF90EF90DF900895FC016623D9F08081E0
:1006B000833079F0843028F4882341F0813079F454
:1006C00006C0843039F0873051F407C072CECF01B4
:1006D00052CE4ACE8181628171CE8181E9CE84ED94
:1006E00091E035CE08950F931F93DF93CF93CDB74D
:1006F000DEB7A0970FB6F894DEBF0FBECDBF80E87F
:100700008093610082E08093610001DE1CD034D0D0
:100710008823E9F380E197E220E931E0F90131979C
:10072000F1F70197D9F78E010F5F1F4FC4D180FFFA
:10073000FDCF44D0C80160E295DE682F8F3FB1F352
:10074000C801B2DFF7CF81E88093D70080EA8093B9
:10075000D80086E189BD09B400FEFDCF80E9809311
:10076000D8001092E00010920801109209018CE06C
:100770008093E200789408958091080108952FB73E
:10078000F89480910801882339F083E08093E90090
:100790008091E80085FD04C02FBF2FEF3FEF0CC014
:1007A0009091F1008091E80085FD03C08BE6809375
:1007B000E8002FBF292F30E0C9010895809108017A
:1007C000882371F09FB7F89483E08093E9002BE6CB
:1007D00002C02093E8008091E80085FDFACF9FBF1A
:1007E0000895482F809108018823D9F12FB7F894F4
:1007F00084E08093E90080910B01882341F080918F
:10080000E80085FD02C02FBF12C010920B0190912D
:10081000E400975E34E08091E80085FD13C02FBFAF
:100820008091E400891729F481E080930B018FEF18
:100830000895809108018823A1F02FB7F894309390
:10084000E900E9CF4093F1008091E80085FD03C005
:100850008AE38093E80085E080930A012FBF80E05F
:1008600008958FEF0895CF93DF93EC0180910801F5
:10087000882309F41CC13FB7F89484E08093E90011
:1008800080910B01882309F407C18091E80085FD60
:1008900002C03FBF0CC110920B01FEC09091E4005A
:1008A000975E8091E80085FD13C03FBF8091E40012
:1008B000891721F481E080930B01F9C08091080130
:1008C000882309F4F4C03FB7F8945093E900E9CFC6
:1008D0008091F2002A2F281B822F90E06817790759
:1008E00008F4262F822F90E08134910508F0C6C0CD
:1008F000845B9F4FFC01EE0FFF1F0590F491E02DEC
:10090000099489918093F10089918093F1008991F4
:100910008093F10089918093F10089918093F10097
:1009200089918093F10089918093F100899180935E
:10093000F10089918093F10089918093F100899170
:100940008093F10089918093F10089918093F10067
:1009500089918093F10089918093F100899180932E
:10096000F10089918093F10089918093F100899140
:100970008093F10089918093F10089918093F10037
:1009800089918093F10089918093F10089918093FE
:10099000F10089918093F10089918093F100899110
:1009A0008093F10089918093F10089918093F10007
:1009B00089918093F10089918093F10089918093CE
:1009C000F10089918093F10089918093F1008991E0
:1009D0008093F10089918093F10089918093F100D7
:1009E00089918093F10089918093F100899180939E
:1009F000F10089918093F10089918093F1008991B0
:100A00008093F10089918093F10089918093F100A6
:100A100089918093F10089918093F100899180936D
:100A2000F10089918093F10089918093F10089917F
:100A30008093F10089918093F10089918093F10076
:100A400089918093F10089918093F100899180933D
:100A5000F10089918093F10089918093F10089914F
:100A60008093F10089918093F10089918093F10046
:100A700089918093F10089918093F100899180930D
:100A8000F1008091E80085FD02C0B093E800621B90
:100A9000710940930A0104C054E0A0E4BAE345E0C0
:100AA0006115710509F0FACE3FBF80E001C08FEFFC
:100AB000DF91CF9108958091090108951F920F92BF
:100AC0000FB60F9211248F939F938091E1001092A3
:100AD000E100982F83FF11C01092E90081E080931C
:100AE000EB001092EC0082E18093ED0088E08093AF
:100AF000F000109208011092090192FF13C080913A
:100B00000801882379F080910A01882359F08150E7
:100B100080930A01882331F484E08093E9008AE31A
:100B20008093E8009F918F910F900FBE0F901F90C0
:100B300018951F920F920FB60F920BB60F921124B9
:100B40000F931F932F933F934F935F936F937F93D5
:100B50008F939F93AF93BF93EF93FF931092E9000E
:100B60008091E80083FF3CC14091F1003091F10099
:100B70008091F100682F70E02091F100922F80E0C9
:100B8000682B792B8091F100A82FB0E02091F10023
:100B9000922F80E0A82BB92B1091F1000091F10069
:100BA00082EF8093E800363009F05AC020E132E04D
:100BB000A90145505040F9013797859194918617C6
:100BC000970701F5FA01859194918A179B07D1F453
:100BD0009A012E5F3F4FF901659174912E5F3F4F4F
:100BE000F9014491212F30E0902F80E0282B392B00
:100BF0002F3F310519F010F02FEF30E0241758F493
:100C0000422F09C0295F3F4F495F5F4FF2E02A330F
:100C10003F0789F6E5C05EEF8091E800282F30E0BD
:100C2000C90185709070892BB9F322FDDCC0342F87
:100C3000413108F030E1232FCB0106C0FC010196C1
:100C4000E491E093F10021502223C1F7630F711D5D
:100C5000431B5093E8004423F9F63031E9F2C3C056
:100C6000353061F48EEF8093E8008091E80080FFDA
:100C7000FCCF862F80688093E300B5C0393051F5F2
:100C8000442309F0ADC0609308011092090110924D
:100C90000A018EEF8093E80083E392E021E0209345
:100CA000E900FC010196E491E093EB00EE2369F08A
:100CB000AC014F5F5F4FFC0184918093EC00CA014F
:100CC0000196FA0134913093ED002F5F253039F70A
:100CD0008EE181C0383061F4403809F081C08091E4
:100CE000E80080FFFCCF809108018093F10050C0A4
:100CF000313289F4413A09F073C08091E80080FFF5
:100D0000FCCFE0E0F1E081918093F10081E0E730F9
:100D1000F807C9F73DC03032A1F4413209F060C094
:100D20008091E80082FFFCCFE0E0F1E08091F100EB
:100D3000819381E0E730F807C9F78BEF8093E800F3
:100D400027C0323251F4413209F04AC060930901A0
:100D50008091E80080FFFCCF1BC03323E9F4809131
:100D6000E80080FFFCCF423811F080E00DC0A09376
:100D7000E9008091EB0090E025E0969587952A9513
:100D8000E1F781701092E9008093F1001092F10078
:100D90008EEF8093E80027C0313011F0333001F539
:100DA0004230F1F4672BE1F42A2F2F77822F815004
:100DB0008430B0F48EEF8093E8002093E900333064
:100DC00079F089E18093EB0081E090E002C0880F28
:100DD000991F2A95E2F78093EA001092EA0003C077
:100DE00081E28093EB00FF91EF91BF91AF919F91D2
:100DF0008F917F916F915F914F913F912F911F91B3
:100E00000F910F900BBE0F900FBE0F901F90189573
:100E1000EAE7F0E096E89083982F907290689093BC
:100E20007B008F71862B80937C0010920C011092B6
:100E30000D018EEE80837894089580910C01E091ED
:100E40000D018E17D1F38E2F8F5F823008F080E076
:100E5000E82FF0E0EE0FFF1FE25FFE4F20813181AF
:100E600080930D01C90108951F920F920FB60F9242
:100E70000BB60F9211242F933F938F939F93EF9371
:100E8000FF93209178003091790090910C019F5F41
:100E9000923008F090E080910D01981751F0E92F01
:100EA000F0E0EE0FFF1FE25FFE4F3183208390934F
:100EB0000C01FF91EF919F918F913F912F910F9096
:100EC0000BBE0F900FBE0F901F901895F894FFCF98
:080ED00000E100000000080031
:00000001FF
