:1000000026C1000041C100003FC100003DC1000009
:100010003BC1000039C1000037C1000035C10000FC
:1000200033C1000031C1000024C300005DC30000E3
:100030002BC1000029C1000027C1000025C100001C
:1000400023C1000021C100001FC100001DC100002C
:100050001BC1000019C1000017C1000015C100003C
:1000600013C1000011C100000FC100000DC100004C
:100070000BC1000009C1000007C1000005C100005C
:1000800003C1000001C10000FFC00000FDC000006E
:10009000FBC00000F9C00000222C206D7573742095
:1000A0006265203F206F72203D0D0A00556E6B6E19
:1000B0006F776E20636F6D6D616E64202200222C5D
:1000C000206D7573742062652030206F7220310DB1
:1000D0000A00556E6B6E6F776E2076616C756520C9
:1000E00022000D0A00222C206D7573742062652099
:1000F0003020746F20370D0A00556E6B6E6F776E6F
:100100002070696E202200222C206D75737420628D
:10011000652041202D20460D0A00556E6B6E6F77CD
:100120006E20706F7274202200756E7265636F6747
:100130006E697A656420666F726D61742C2033205D
:100140006368617273206D696E2072657127640D3A
:100150000A00494E56414C49445F434F4D4D414E74
:10016000445F434F44450001020304050607080AA3
:100170000041726D20436F6E74726F6C6C657220FB
:10018000312E300A0000010000B901120002000007
:10019000CB0143000300000E020401030904120214
:1001A00014020309042802160303090440020C0088
:1001B00001C11201803601813612010002020000E5
:1001C00010C0167A04000101020301090243000273
:1001D0000100C032090400000102020100052400F0
:1001E0001001052401010104240206052406000172
:1001F0000705820310004009040100020A00000004
:1002000007050302400000070584024000000403C4
:100210000904140359006F007500720020004E009D
:1002200061006D0065000000160355005300420098
:100230002000530065007200690061006C0000003E
:100240000C0331003200330034003500000011246B
:100250001FBECFEFD0E2DEBFCDBF11E0A0E0B1E026
:10026000EAECF9E000E00BBF02C007900D92AC3061
:10027000B107D9F711E0ACE0B1E001C01D92A132A5
:10028000B107E1F71AD19FC3BBCE80EE84B980E7F6
:1002900087B9109289001092880010928B001092FA
:1002A0008A0010928D0010928C0098EA9093800042
:1002B00082E1809381001092850010928400109258
:1002C00099001092980010929B0010929A00109240
:1002D0009D0010929C00909390008093910010924A
:1002E00095001092940080E29EE4909387008093A2
:1002F000860090939700809396000895CF93DF93A4
:10030000EC01FE0121968491882311F06DD1F9CF83
:10031000DF91CF9108950F931F9380917A008064AD
:1003200080937A0080917A0084FFFCCF109178004E
:100330000091790087E058D183E056D1812F54D1C4
:10034000802F52D18AE050D11F910F91089583E000
:100350004BD180E049D187E691E0D0CFFF920F9357
:100360001F93CF93DF93182F092FF62E82E03CD1F5
:10037000212F302FC901EC0111E003C0888134D155
:100380001F5F21961F15D0F38AE02ED1DF91CF9108
:100390001F910F91FF90089580E026D181E791E0B1
:1003A000ADCFFF920F931F93182FF62E042F84E0EA
:1003B0001BD1812F19D11230C1F0133028F4112331
:1003C00051F0113029F50CC01430C9F0143090F000
:1003D0001530F1F419C000938900F092880018C01C
:1003E00000938B00F0928A0013C000938D00F0926E
:1003F0008C000EC000939900F092980009C0009301
:100400009B00F0929A0004C000939D00F0929C0023
:1004100080E0EAD08AE0E8D01F910F91FF90089524
:10042000FC01662319F180818430A1F0853038F415
:10043000813069F0813050F08330A9F40AC08630F1
:1004400069F0863098F0873071F40BC0A5CFCF01EA
:1004500085CF7DCF818162814381A3CF80E091E010
:10046000C3C0818158CF82E591E048CF08950F93B2
:100470001F93CF93DF93EC01062F10E014C082D0BE
:100480002FEF8F3F920749F08D30910581F08A3030
:10049000910569F089931F5F06C071D0882331F000
:1004A000E5D080FF03C0101750F301C01FEF812F6C
:1004B000DF91CF911F910F9108950F931F93DF93B9
:1004C000CF93CDB7DEB7A0970FB6F894DEBF0FBEBF
:1004D000CDBF80E88093610010926100D6DE80E09D
:1004E00090E0FC01E85EFE4F1082FC01E05FFE4FF1
:1004F0001082019688309105A1F783E08093200156
:1005000083EC80937C0087E880937A0086E0809378
:100510007B001CD034D08823E9F380E197E220E906
:1005200031E0F9013197F1F70197D9F78E010F5FAB
:100530001F4F9CD080FFFDCF44D0C80160E297DF01
:10054000682F8F3FB1F3C8016BDFF7CF81E880934D
:10055000D70080EA8093D80086E189BD09B400FE07
:10056000FDCF80E98093D8001092E00010920C013A
:1005700010920D018CE08093E200789408958091B0
:100580000C0108952FB7F89480910C01882339F05D
:1005900083E08093E9008091E80085FD04C02FBFCF
:1005A0002FEF3FEF0CC09091F1008091E80085FDA6
:1005B00003C08BE68093E8002FBF292F30E0C901EC
:1005C000089580910C01882371F09FB7F89483E01F
:1005D0008093E9002BE602C02093E8008091E800B8
:1005E00085FDFACF9FBF0895482F80910C01882385
:1005F000D9F12FB7F89484E08093E90080910F013E
:10060000882341F08091E80085FD02C02FBF12C011
:1006100010920F019091E400975E34E08091E80021
:1006200085FD13C02FBF8091E400891729F481E074
:1006300080930F018FEF089580910C018823A1F022
:100640002FB7F8943093E900E9CF4093F1008091FF
:10065000E80085FD03C08AE38093E80085E080938D
:100660000E012FBF80E008958FEF089580910D0156
:1006700008951F920F920FB60F9211248F939F939C
:100680008091E1001092E100982F83FF11C0109239
:10069000E90081E08093EB001092EC0082E180930E
:1006A000ED0088E08093F00010920C0110920D0193
:1006B00092FF13C080910C01882379F080910E0184
:1006C000882359F0815080930E01882331F484E00F
:1006D0008093E9008AE38093E8009F918F910F90C7
:1006E0000FBE0F901F9018951F920F920FB60F928A
:1006F0000BB60F9211240F931F932F933F934F9399
:100700005F936F937F938F939F93AF93BF93EF9379
:10071000FF931092E9008091E80083FF3CC1409173
:10072000F1003091F1008091F100682F70E020918C
:10073000F100922F80E0682B792B8091F100A82F97
:10074000B0E02091F100922F80E0A82BB92B1091FE
:10075000F1000091F10082EF8093E800363009F05B
:100760005AC02CE831E0A90145505040F9013797B3
:10077000859194918617970701F5FA0185919491D7
:100780008A179B07D1F49A012E5F3F4FF9016591BB
:1007900074912E5F3F4FF9014491212F30E0902F4B
:1007A00080E0282B392B2F3F310519F010F02FEF67
:1007B00030E0241758F4422F09C0295F3F4F495FAA
:1007C0005F4FF1E0263B3F0789F6E5C05EEF809181
:1007D000E800282F30E0C90185709070892BB9F3AB
:1007E00022FDDCC0342F413108F030E1232FCB0152
:1007F00006C0FC010196E491E093F1002150222310
:10080000C1F7630F711D431B5093E8004423F9F6B1
:100810003031E9F2C3C0353061F48EEF8093E800E7
:100820008091E80080FFFCCF862F80688093E300F2
:10083000B5C0393051F5442309F0ADC060930C01C7
:1008400010920D0110920E018EEF8093E8008FEA56
:1008500091E021E02093E900FC010196E491E0930E
:10086000EB00EE2369F0AC014F5F5F4FFC01849118
:100870008093EC00CA010196FA0134913093ED00A7
:100880002F5F253039F78EE181C0383061F4403870
:1008900009F081C08091E80080FFFCCF80910C01BD
:1008A0008093F10050C0313289F4413A09F073C0AD
:1008B0008091E80080FFFCCFE4E0F1E0819180933B
:1008C000F10081E0EB30F807C9F73DC03032A1F408
:1008D000413209F060C08091E80082FFFCCFE4E083
:1008E000F1E08091F100819381E0EB30F807C9F7E6
:1008F0008BEF8093E80027C0323251F4413209F087
:100900004AC060930D018091E80080FFFCCF1BC0BE
:100910003323E9F48091E80080FFFCCF423811F0E6
:1009200080E00DC0A093E9008091EB0090E025E00D
:10093000969587952A95E1F781701092E90080934A
:10094000F1001092F1008EEF8093E80027C0313063
:1009500011F0333001F54230F1F4672BE1F42A2F26
:100960002F77822F81508430B0F48EEF8093E8008F
:100970002093E900333079F089E18093EB0081E046
:1009800090E002C0880F991F2A95E2F78093EA0051
:100990001092EA0003C081E28093EB00FF91EF9197
:1009A000BF91AF919F918F917F916F915F914F9187
:1009B0003F912F911F910F910F900BBE0F900FBE83
:0A09C0000F901F901895F894FFCFD8
:0C09CA0006030A0000E100000000080025
:00000001FF
