:10000000BAC00000D3C00000D1C00000CFC00000C3
:10001000CDC00000CBC00000C9C00000C7C00000B8
:10002000C5C00000C3C00000E3C100001CC2000046
:10003000BDC00000BBC00000B9C00000B7C00000D8
:10004000B5C00000B3C00000B1C00000AFC00000E8
:10005000ADC00000ABC00000A9C00000A7C00000F8
:10006000A5C00000A3C00000A1C000009FC0000008
:100070009DC000009CC0000099C0000097C0000017
:1000800095C0000093C0000091C000008FC0000028
:100090008DC000008BC0000089C0000087C0000038
:1000A00085C0000083C0000081C000000001000086
:1000B000E0001200020000F20043000300003501DE
:1000C0000401030904390114020309044F01160352
:1000D00003090467010C0001C11201803601813659
:1000E0001201000202000010C0167A040001010291
:1000F000030109024300020100C0320904000001AB
:10010000020201000524001001052401010104245C
:1001100002060524060001070582031000400904B9
:100120000100020A00000007050302400000070565
:10013000840240000004030904140359006F007591
:1001400000720020004E0061006D00650000001686
:1001500003550053004200200053006500720069FF
:100160000061006C0000000C0331003200330034E9
:1001700000350000000011241FBECFEFDAE0DEBF23
:10018000CDBF11E0A0E0B1E0EEE8F7E002C00590DD
:100190000D92A830B107D9F711E0A8E0B1E001C095
:1001A0001D92A431B107E1F717D1EFC229CF1F92F9
:1001B0000F920FB60F9211242F933F938F939F931B
:1001C000EF93FF932091780030917900909108018E
:1001D0009F5F923008F090E080910901981751F0EC
:1001E000E92FF0E0EE0FFF1FE65FFE4F3183208323
:1001F00090930801FF91EF919F918F913F912F91E3
:100200000F900FBE0F901F90189586E880937A008C
:1002100080E880937B0080E480937C00109208014A
:10022000109209018EEE80937A00789480910801F3
:10023000E09109018E17D1F38E2F8F5F823008F085
:1002400080E0E82FF0E0EE0FFF1FE65FFE4F208119
:10025000318180930901C901089564E070E06ED294
:10026000262F972F862F60E170E068D260931201ED
:10027000862F90E034E0880F991F3A95E1F7281B0C
:10028000209313010895883009F457C0893088F409
:100290008330B9F1843028F4813021F1823040F587
:1002A00061C08530C1F1853098F1873009F06DC0AB
:1002B0003BC08C3009F456C08D3038F48A3009F4D4
:1002C00051C08B3008F04EC040C08E3009F44AC097
:1002D0008E3008F447C08F3009F444C0803109F0F3
:1002E00054C04AC018BC109289001092880034C0D3
:1002F00018BC10928900109288008FEF8093B30091
:1003000038C018BC10928900109288008FEF12C07C
:100310008FEF88BD28C08FEF88BD109289001092A2
:1003200088001092B3001BC08FEF88BD1092890027
:10033000109288008093B30012C018BC8FEF90E039
:10034000909389008093880012C018BC8FEF90E0D2
:1003500090938900809388001092B3008FEF809370
:10036000B400089518BC1092890010928800109271
:10037000B3001092B400089518BC10928900109236
:1003800088001092B3001092B40008958FEF87BDDB
:100390008091120178DF17BC8091130174CF84B172
:1003A000806F84B98AB183608AB993EA94BD81E091
:1003B00085BD9093B0008093B10091EA9093800046
:1003C00089E0809381001092820090939000809346
:1003D000910010929200089580E88093610082E07D
:1003E00080936100DCDF11DF90E037DFCFDFFBCFF0
:1003F0001F920F920FB60F9211248F939F938091AB
:10040000E1001092E100982F83FF11C01092E900E3
:1004100081E08093EB001092EC0082E18093ED008C
:1004200088E08093F00010920E0110920F0192FF6D
:1004300013C080910E01882379F0809110018823E8
:1004400059F0815080931001882331F484E0809327
:10045000E9008AE38093E8009F918F910F900FBE8F
:100460000F901F9018951F920F920FB60F921124A4
:100470000F931F932F933F934F935F936F937F93AC
:100480008F939F93AF93BF93EF93FF931092E900E5
:100490008091E80083FF3CC14091F1003091F10070
:1004A0008091F100682F70E02091F100922F80E0A0
:1004B000682B792B8091F100A82FB0E02091F100FA
:1004C000922F80E0A82BB92B1091F1000091F10040
:1004D00082EF8093E800363009F05AC023EB30E019
:1004E000A90145505040F90137978591949186179D
:1004F000970701F5FA01859194918A179B07D1F42A
:100500009A012E5F3F4FF901659174912E5F3F4F25
:10051000F9014491212F30E0902F80E0282B392BD6
:100520002F3F310519F010F02FEF30E0241758F469
:10053000422F09C0295F3F4F495F5F4FF0E02D3DDB
:100540003F0789F6E5C05EEF8091E800282F30E094
:10055000C90185709070892BB9F322FDDCC0342F5E
:10056000413108F030E1232FCB0106C0FC01019698
:10057000E491E093F10021502223C1F7630F711D34
:10058000431B5093E8004423F9F63031E9F2C3C02D
:10059000353061F48EEF8093E8008091E80080FFB1
:1005A000FCCF862F80688093E300B5C0393051F5C9
:1005B000442309F0ADC060930E0110920F01109218
:1005C00010018EEF8093E80086ED90E021E020930B
:1005D000E900FC010196E491E093EB00EE2369F061
:1005E000AC014F5F5F4FFC0184918093EC00CA0126
:1005F0000196FA0134913093ED002F5F253039F7E1
:100600008EE181C0383061F4403809F081C08091BA
:10061000E80080FFFCCF80910E018093F10050C074
:10062000313289F4413A09F073C08091E80080FFCB
:10063000FCCFE0E0F1E081918093F10081E0E730D0
:10064000F807C9F73DC03032A1F4413209F060C06B
:100650008091E80082FFFCCFE0E0F1E08091F100C2
:10066000819381E0E730F807C9F78BEF8093E800CA
:1006700027C0323251F4413209F04AC060930F0171
:100680008091E80080FFFCCF1BC03323E9F4809108
:10069000E80080FFFCCF423811F080E00DC0A0934D
:1006A000E9008091EB0090E025E0969587952A95EA
:1006B000E1F781701092E9008093F1001092F1004F
:1006C0008EEF8093E80027C0313011F0333001F510
:1006D0004230F1F4672BE1F42A2F2F77822F8150DB
:1006E0008430B0F48EEF8093E8002093E90033303B
:1006F00079F089E18093EB0081E090E002C0880FFF
:10070000991F2A95E2F78093EA001092EA0003C04D
:1007100081E28093EB00FF91EF91BF91AF919F91A8
:100720008F917F916F915F914F913F912F911F9189
:100730000F910F900FBE0F901F90189597FB092EE9
:1007400007260AD077FD04D00CD006D000201AF47A
:10075000709561957F4F0895F6F7909581959F4F1D
:100760000895AA1BBB1B51E107C0AA1FBB1FA617F8
:10077000B70710F0A61BB70B881F991F5A95A9F74A
:0E07800080959095BC01CD010895F894FFCFAF
:08078E0000E10000000008007A
:00000001FF
