:100000006FC1000089C1000087C1000085C10000E8
:1000100083C1000081C100007FC100007DC10000DC
:100020007BC1000079C100000C94EE080C942909F2
:1000300073C1000071C100006FC100006DC10000FC
:100040006BC1000069C1000067C1000065C100000C
:1000500063C1000061C100005FC100005DC100001C
:100060005BC1000059C1000057C1000055C100002C
:1000700053C1000052C100004FC100004DC100003B
:100080004BC1000049C1000047C1000045C100004C
:1000900043C1000041C100003FC100003DC100005C
:1000A0003BC1000039C1000037C10000D108CE08B3
:1000B000CB08C808C508C208BF08BC08B908B608FC
:1000C000B308B008AD08AA08A708A408A1089E08AC
:1000D0009B089808950892088F088C08890886085C
:1000E000830880087D087A087708740871086E080C
:1000F0006B086808650862085F085C0859085608BC
:10010000530850084D084A084708440841083E086B
:100110003B083808350832082F082C08290826081B
:10012000230820081D081A08170814081108222C93
:10013000206D757374206265203F206F72203D0D25
:100140000A00556E6B6E6F776E20636F6D6D616E1A
:1001500064202200222C206D75737420626520308B
:10016000206F7220310D0A00556E6B6E6F776E2016
:1001700076616C75652022000D0A00222C206D75B9
:100180007374206265203020746F20370D0A00558B
:100190006E6B6E6F776E2070696E202200222C20AD
:1001A0006D7573742062652041202D20460D0A0074
:1001B000556E6B6E6F776E20706F727420220075B3
:1001C0006E7265636F676E697A656420666F726DC3
:1001D00061742C2033206368617273206D696E2016
:1001E00072657127640D0A00494E56414C49445FBF
:1001F000434F4D4D414E445F434F44450001020380
:1002000004050607080A004C616D7020436F6E7488
:10021000726F6C65720A00000100004B021200024E
:1002200000005D024300030000A002040103090472
:10023000A4021402030904BA021603030904D20239
:100240000C0001C112018036018136120100020248
:10025000000010C0167A04000101020301090243E4
:1002600000020100C0320904000001020201000581
:1002700024001001052401010104240206052406BE
:1002800000010705820310004009040100020A0072
:10029000000007050302400000070584024000003B
:1002A00004030904140359006F0075007200200054
:1002B0004E0061006D0065000000160355005300FC
:1002C00042002000530065007200690061006C006C
:1002D00000000C0331003200330034003500000010
:1002E00011241FBECFEFDAE0DEBFCDBF11E0A0E0EA
:1002F000B1E0ECE2F5E102C005900D92A830B10743
:10030000D9F711E0A8E0B1E001C01D92A231B10718
:10031000E1F778D50C94940A73CE1F920F920FB622
:100320000F9211242F933F938F939F93EF93FF93FB
:100330002091780030917900909108019F5F923070
:1003400008F090E080910901981751F0E92FF0E052
:10035000EE0FFF1FE65FFE4F31832083909308016D
:10036000FF91EF919F918F913F912F910F900FBE31
:100370000F901F90189584B1806F84B98AB1836003
:100380008AB993EA94BD81E085BD9093B0008093D3
:10039000B10091EA9093800089E0809381001092EF
:1003A00082009093900080939100109292000895A3
:1003B000CF93DF93EC01FE0121968491882311F005
:1003C000A0D5F9CFDF91CF91089583E09AD580E051
:1003D00098D58DEF91E0ECCFFF920F931F93CF93C1
:1003E000DF93182F092FF62E82E08BD5212F302F87
:1003F000C901EC0111E003C0888183D51F5F2196FC
:100400001F15D0F38AE07DD5DF91CF911F910F9119
:10041000FF90089580E075D587E092E0C9CF0F93F3
:100420001F93182F062F84E06CD5812F6AD51430C6
:1004300031F1153048F4113091F0113070F0123074
:1004400081F01330B9F514C01630F9F01630D0F041
:10045000173011F1183071F526C007BD2DC008BD49
:100460002BC0802F90E0909389008093880024C057
:10047000802F90E090938B0080938A001DC00093A2
:10048000B3001AC00093B40017C0802F90E090937F
:1004900099008093980010C0802F90E090939B006B
:1004A00080939A0009C0802F90E090939D008093E4
:1004B0009C0002C081E001C080E023D58AE021D504
:1004C0001F910F9108950F931F93CF93DF93EC012A
:1004D000062F10E014C0E3D42FEF8F3F920749F0AE
:1004E0008D30910581F08A30910569F089931F5F05
:1004F00006C0D2D4882331F06ED680FF03C0101717
:1005000050F301C01FEF812FDF91CF911F910F9109
:100510000895DF92EF92FF920F931F93DF93CF9393
:1005200000D000D0CDB7DEB7182F87E0EAD4812FF6
:10053000E8D4133009F457C1143038F4113009F4F9
:1005400076C0123008F0E1C00DC0153009F427C2A2
:10055000153008F4B6C1163009F48FC2173009F00F
:1005600068C3F9C286E880937A0080E880937B00B4
:1005700080E480937C0010920801109209018EEEB5
:1005800080937A00789401E010E0B0E2DB2E7E01E7
:100590000894E11CF11C80910801E09109018E177B
:1005A000D1F38E2F8F5F823008F080E0E82FF0E0EB
:1005B000EE0FFF1FE65FFE4F0190F081E02D80936C
:1005C00009018F2F9927282F2F708F7090700A970D
:1005D00018F4322F305D02C0322F395CCF0164E055
:1005E000969587956A95E1F7282F2F708F709070F8
:1005F0000A9718F4822F805D02C0822F895C9E2F9B
:100600009F70EF70F0703A9710F4905D01C0995CA4
:100610009B83DC828A833983C70164E070E0B3D4B2
:100620000F5F1F4F0A30110509F0B5CF04C386E8EC
:1006300080937A0080E880937B0081E480937C0043
:1006400010920801109209018EEE80937A0078943E
:1006500088E893E120E931E0F9013197F1F701975A
:10066000D9F701E010E050E2D52E7E010894E11C9C
:10067000F11C80910801E09109018E17D1F38E2FB2
:100680008F5F823008F080E0E82FF0E0EE0FFF1F70
:10069000E65FFE4F0190F081E02D809309018F2FDE
:1006A0009927282F2F708F7090700A9718F4322F87
:1006B000305D02C0322F395CCF0124E096958795DA
:1006C0002A95E1F7282F2F708F7090700A9718F4F1
:1006D000822F805D02C0822F895C9E2F9F70EF70F9
:1006E000F0703A9710F4905D01C0995C9B83DC82B6
:1006F0008A833983C70164E070E045D40F5F1F4FE0
:100700000A30110509F0B5CF96C286E880937A00C9
:1007100080E880937B0082E480937C001092080143
:10072000109209018EEE80937A00789488E893E124
:1007300020E931E0F9013197F1F70197D9F701E0AC
:1007400010E0B0E2DB2E7E010894E11CF11C8091E8
:100750000801E09109018E17D1F38E2F8F5F82304F
:1007600008F080E0E82FF0E0EE0FFF1FE65FFE4F9D
:100770000190F081E02D809309018F2F9927282F78
:100780002F708F7090700A9718F4322F305D02C06E
:10079000322F395CCF0164E0969587956A95E1F731
:1007A000282F2F708F7090700A9718F4822F805D19
:1007B00002C0822F895C9E2F9F70EF70F0703A9775
:1007C00010F4905D01C0995C9B83DC828A8339833D
:1007D000C70164E070E0D7D30F5F1F4F0A301105E7
:1007E00009F0B5CF28C286E880937A0080E880932C
:1007F0007B0083E480937C00109208011092090131
:100800008EEE80937A00789488E893E120E931E0D5
:10081000F9013197F1F70197D9F701E010E050E2C3
:10082000D52E7E010894E11CF11C80910801E09115
:1008300009018E17D1F38E2F8F5F823008F080E090
:10084000E82FF0E0EE0FFF1FE65FFE4F0190F08112
:10085000E02D809309018F2F9927282F2F708F70FB
:1008600090700A9718F4322F305D02C0322F395C35
:10087000CF0124E0969587952A95E1F7282F2F70D0
:100880008F7090700A9718F4822F805D02C0822FBB
:10089000895C9E2F9F70EF70F0703A9710F4905D16
:1008A00001C0995C9B83DC828A833983C70164E041
:1008B00070E069D30F5F1F4F0A30110509F0B5CF03
:1008C000BAC186E880937A0080E880937B0084E454
:1008D00080937C0010920801109209018EEE8093A3
:1008E0007A00789488E893E120E931E0F9013197C2
:1008F000F1F70197D9F701E010E0B0E2DB2E7E01BD
:100900000894E11CF11C80910801E09109018E1707
:10091000D1F38E2F8F5F823008F080E0E82FF0E077
:10092000EE0FFF1FE65FFE4F0190F081E02D8093F8
:1009300009018F2F9927282F2F708F7090700A9799
:1009400018F4322F305D02C0322F395CCF0164E0E1
:10095000969587956A95E1F7282F2F708F70907084
:100960000A9718F4822F805D02C0822F895C9E2F27
:100970009F70EF70F0703A9710F4905D01C0995C31
:100980009B83DC828A833983C70164E070E0FBD2F9
:100990000F5F1F4F0A30110509F0B5CF4CC186E833
:1009A00080937A0080E880937B0085E480937C00CC
:1009B00010920801109209018EEE80937A007894CB
:1009C00088E893E120E931E0F9013197F1F70197E7
:1009D000D9F701E010E050E2D52E7E010894E11C29
:1009E000F11C80910801E09109018E17D1F38E2F3F
:1009F0008F5F823008F080E0E82FF0E0EE0FFF1FFD
:100A0000E65FFE4F0190F081E02D809309018F2F6A
:100A10009927282F2F708F7090700A9718F4322F13
:100A2000305D02C0322F395CCF0124E09695879566
:100A30002A95E1F7282F2F708F7090700A9718F47D
:100A4000822F805D02C0822F895C9E2F9F70EF7085
:100A5000F0703A9710F4905D01C0995C9B83DC8242
:100A60008A833983C70164E070E08DD20F5F1F4F26
:100A70000A30110509F0B5CFDEC086E880937A0010
:100A800080E880937B0086E480937C0010920801CC
:100A9000109209018EEE80937A00789488E893E1B1
:100AA00020E931E0F9013197F1F70197D9F701E039
:100AB00010E0B0E2DB2E7E010894E11CF11C809175
:100AC0000801E09109018E17D1F38E2F8F5F8230DC
:100AD00008F080E0E82FF0E0EE0FFF1FE65FFE4F2A
:100AE0000190F081E02D809309018F2F9927282F05
:100AF0002F708F7090700A9718F4322F305D02C0FB
:100B0000322F395CCF0164E0969587956A95E1F7BD
:100B1000282F2F708F7090700A9718F4822F805DA5
:100B200002C0822F895C9E2F9F70EF70F0703A9701
:100B300010F4905D01C0995C9B83DC828A833983C9
:100B4000C70164E070E01FD20F5F1F4F0A3011052C
:100B500009F0B5CF70C086E880937A0080E8809372
:100B60007B0087E480937C001092080110920901B9
:100B70008EEE80937A00789488E893E120E931E062
:100B8000F9013197F1F70197D9F701E010E050E250
:100B9000D52E7E010894E11CF11C80910801E091A2
:100BA00009018E17D1F38E2F8F5F823008F080E01D
:100BB000E82FF0E0EE0FFF1FE65FFE4F0190F0819F
:100BC000E02D809309018F2F9927282F2F708F7088
:100BD00090700A9718F4322F305D02C0322F395CC2
:100BE000CF0124E0969587952A95E1F7282F2F705D
:100BF0008F7090700A9718F4822F805D02C0822F48
:100C0000895C9E2F9F70EF70F0703A9710F4905DA2
:100C100001C0995C9B83DC828A833983C70164E0CD
:100C200070E0B1D10F5F1F4F0A30110509F0B5CF49
:100C300002C081E001C080E064D18AE062D10F90FF
:100C40000F900F900F90CF91DF911F910F91FF9018
:100C5000EF90DF900895FC016623D9F08081833006
:100C600079F0843028F4882341F0813079F406C08B
:100C7000843039F0873051F407C0CCCBCF01ACCBF6
:100C8000A4CB81816281CBCB818143CC88EE91E082
:100C90008FCB08950F931F93DF93CF9300D000D095
:100CA000CDB7DEB786E880937A0080E880937B003A
:100CB00080E480937C0010920801109209018EEE6E
:100CC00080937A00789480910801E09109018E1751
:100CD000D1F38E2F8F5F823008F080E0E82FF0E0B4
:100CE000EE0FFF1FE65FFE4F008111818093090127
:100CF00020E0205D2B8380E28C832A832983CE0130
:100D0000019664E070E03FD10436110510F418BC80
:100D100029C0083C110530F418BC109289001092CB
:100D2000880062C081E00C32180758F418BC109299
:100D30008900109288008FEF8093B3001092B40066
:100D400058C081E00039180738F418BC10928900A7
:100D5000109288008FEF2DC081E0043F180738F40F
:100D60008FEF88BD109289001092880030C082E019
:100D70000835180748F48FEF88BD1092890010924B
:100D800088001092B30033C082E00C3B180738F49F
:100D90008FEF88BD1092890010928800CDCF83E03C
:100DA0000032180748F48FEF88BD10928900109226
:100DB00088008093B3001BC083E00438180750F408
:100DC00018BC8FEF90E09093890080938800109278
:100DD000B300B4CF085E134060F418BC8FEF90E00E
:100DE00090938900809388001092B3008FEF8093D6
:100DF000B4000F900F900F900F90CF91DF911F9143
:100E00000F9108950F931F93DF93CF93CDB7DEB764
:100E1000A0970FB6F894DEBF0FBECDBF80E88093D9
:100E2000610082E080936100A6DA1DD035D088236E
:100E3000E9F380E197E220E931E0F9013197F1F738
:100E40000197D9F78E010F5F1F4FC5D180FFFDCFEE
:100E500045D0C80160E237DB682F8F3FB1F3C8018E
:100E6000FADE18DFF6CF81E08093D70080EA809326
:100E7000D80082E189BD09B400FEFDCF80E98093EE
:100E8000D8001092E00010920E0110920F018CE039
:100E90008093E2007894089580910E0108952FB711
:100EA000F89480910E01882339F083E08093E90063
:100EB0008091E80085FD04C02FBF2FEF3FEF0CC0ED
:100EC0009091F1008091E80085FD03C08BE680934E
:100ED000E8002FBF292F30E0C901089580910E014D
:100EE000882371F09FB7F89483E08093E9002BE6A4
:100EF00002C02093E8008091E80085FDFACF9FBFF3
:100F00000895482F80910E018823D9F12FB7F894C6
:100F100084E08093E90080911101882341F0809161
:100F2000E80085FD02C02FBF12C010921101909100
:100F3000E400975E34E08091E80085FD13C02FBF88
:100F40008091E400891729F481E0809311018FEFEB
:100F5000089580910E018823A1F02FB7F894309363
:100F6000E900E9CF4093F1008091E80085FD03C0DE
:100F70008AE38093E80085E0809310012FBF80E032
:100F800008958FEF0895CF93DF93EC0180910E01C8
:100F9000882309F41CC13FB7F89484E08093E900EA
:100FA00080911101882309F407C18091E80085FD33
:100FB00002C03FBF0CC110921101FEC09091E4002D
:100FC000975E8091E80085FD13C03FBF8091E400EB
:100FD000891721F481E080931101F9C080910E01FD
:100FE000882309F4F4C03FB7F8945093E900E9CF9F
:100FF0008091F2002A2F281B822F90E06817790732
:1010000008F4262F822F90E08134910508F0C6C0A5
:101010008A5A9F4FFC01EE0FFF1F0590F491E02DBF
:10102000099489918093F10089918093F1008991CD
:101030008093F10089918093F10089918093F10070
:1010400089918093F10089918093F1008991809337
:10105000F10089918093F10089918093F100899149
:101060008093F10089918093F10089918093F10040
:1010700089918093F10089918093F1008991809307
:10108000F10089918093F10089918093F100899119
:101090008093F10089918093F10089918093F10010
:1010A00089918093F10089918093F10089918093D7
:1010B000F10089918093F10089918093F1008991E9
:1010C0008093F10089918093F10089918093F100E0
:1010D00089918093F10089918093F10089918093A7
:1010E000F10089918093F10089918093F1008991B9
:1010F0008093F10089918093F10089918093F100B0
:1011000089918093F10089918093F1008991809376
:10111000F10089918093F10089918093F100899188
:101120008093F10089918093F10089918093F1007F
:1011300089918093F10089918093F1008991809346
:10114000F10089918093F10089918093F100899158
:101150008093F10089918093F10089918093F1004F
:1011600089918093F10089918093F1008991809316
:10117000F10089918093F10089918093F100899128
:101180008093F10089918093F10089918093F1001F
:1011900089918093F10089918093F10089918093E6
:1011A000F1008091E80085FD02C0B093E800621B69
:1011B00071094093100104C054E0A0E4BAE345E093
:1011C0006115710509F0FACE3FBF80E001C08FEFD5
:1011D000DF91CF91089580910F0108951F920F9292
:1011E0000FB60F9211248F939F938091E10010927C
:1011F000E100982F83FF11C01092E90081E08093F5
:10120000EB001092EC0082E18093ED0088E0809387
:10121000F00010920E0110920F0192FF13C0809106
:101220000E01882379F080911001882359F08150B4
:1012300080931001882331F484E08093E9008AE3ED
:101240008093E8009F918F910F900FBE0F901F9099
:1012500018951F920F920FB60F9211240F931F93A0
:101260002F933F934F935F936F937F938F939F93AE
:10127000AF93BF93EF93FF931092E9008091E80042
:1012800083FF3CC14091F1003091F1008091F10069
:10129000682F70E02091F100922F80E0682B792B6D
:1012A0008091F100A82FB0E02091F100922F80E012
:1012B000A82BB92B1091F1000091F10082EF8093DF
:1012C000E800363009F05AC02EE132E0A90145505D
:1012D0005040F9013797859194918617970701F54A
:1012E000FA01859194918A179B07D1F49A012E5F98
:1012F0003F4FF901659174912E5F3F4FF901449181
:10130000212F30E0902F80E0282B392B2F3F310503
:1013100019F010F02FEF30E0241758F4422F09C0D5
:10132000295F3F4F495F5F4FF2E028343F0789F65E
:10133000E5C05EEF8091E800282F30E0C90185709C
:101340009070892BB9F322FDDCC0342F413108F0B5
:1013500030E1232FCB0106C0FC010196E491E0931C
:10136000F10021502223C1F7630F711D431B5093DD
:10137000E8004423F9F63031E9F2C3C0353061F4B6
:101380008EEF8093E8008091E80080FFFCCF862FED
:1013900080688093E300B5C0393051F5442309F0EB
:1013A000ADC060930E0110920F01109210018EEFEC
:1013B0008093E80081E492E021E02093E900FC01C1
:1013C0000196E491E093EB00EE2369F0AC014F5FEE
:1013D0005F4FFC0184918093EC00CA010196FA01F1
:1013E00034913093ED002F5F253039F78EE181C0C5
:1013F000383061F4403809F081C08091E80080FF06
:10140000FCCF80910E018093F10050C0313289F4FD
:10141000413A09F073C08091E80080FFFCCFE0E022
:10142000F1E081918093F10081E0E730F807C9F79E
:101430003DC03032A1F4413209F060C08091E80033
:1014400082FFFCCFE0E0F1E08091F100819381E048
:10145000E730F807C9F78BEF8093E80027C03232F6
:1014600051F4413209F04AC060930F018091E800C5
:1014700080FFFCCF1BC03323E9F48091E80080FF9C
:10148000FCCF423811F080E00DC0A093E9008091BC
:10149000EB0090E025E0969587952A95E1F781701D
:1014A0001092E9008093F1001092F1008EEF80938A
:1014B000E80027C0313011F0333001F54230F1F44B
:1014C000672BE1F42A2F2F77822F81508430B0F4DC
:1014D0008EEF8093E8002093E900333079F089E1C2
:1014E0008093EB0081E090E002C0880F991F2A955D
:1014F000E2F78093EA001092EA0003C081E2809351
:10150000EB00FF91EF91BF91AF919F918F917F91F0
:101510006F915F914F913F912F911F910F910F907C
:0C1520000FBE0F901F901895F894FFCF9D
:08152C0000E1000000000800CE
:00000001FF
