:100000006FC1000089C1000087C1000085C10000E8
:1000100083C1000081C100007FC100007DC10000DC
:100020007BC1000079C100007AC70000B3C700009F
:1000300073C1000071C100006FC100006DC10000FC
:100040006BC1000069C1000067C1000065C100000C
:1000500063C1000061C100005FC100005DC100001C
:100060005BC1000059C1000057C1000055C100002C
:1000700053C100000C9461094FC100004DC1000044
:100080004BC1000049C1000047C1000045C100004C
:1000900043C1000041C100003FC100003DC100005C
:1000A0003BC1000039C1000037C1000072076F0773
:1000B0006C0769076607630760075D075A075707FC
:1000C000540751074E074B074807450742073F07AC
:1000D0003C0739073607330730072D072A0727075C
:1000E000240721071E071B071807150712070F070C
:1000F0000C070907060703070007FD06FA06F706BF
:10010000F406F106EE06EB06E806E506E206DF0673
:10011000DC06D906D606D306D006CD06CA06C70623
:10012000C406C106BE06BB06B806B506B206222C3A
:10013000206D757374206265203F206F72203D0D25
:100140000A00556E6B6E6F776E20636F6D6D616E1A
:1001500064202200222C206D75737420626520308B
:10016000206F7220310D0A00556E6B6E6F776E2016
:1001700076616C75652022000D0A00222C206D75B9
:100180007374206265203020746F20370D0A00558B
:100190006E6B6E6F776E2070696E202200222C20AD
:1001A0006D7573742062652041202D20460D0A0074
:1001B000556E6B6E6F776E20706F727420220075B3
:1001C0006E7265636F676E697A656420666F726DC3
:1001D00061742C2033206368617273206D696E2016
:1001E00072657127640D0A00494E56414C49445FBF
:1001F000434F4D4D414E445F434F44450001020380
:1002000004050607080A004C616D7020436F6E7488
:10021000726F6C65720A00000100004B021200024E
:1002200000005D024300030000A002040103090472
:10023000A4021402030904BA021603030904D20239
:100240000C0001C112018036018136120100020248
:10025000000010C0167A04000101020301090243E4
:1002600000020100C0320904000001020201000581
:1002700024001001052401010104240206052406BE
:1002800000010705820310004009040100020A0072
:10029000000007050302400000070584024000003B
:1002A00004030904140359006F0075007200200054
:1002B0004E0061006D0065000000160355005300FC
:1002C00042002000530065007200690061006C006C
:1002D00000000C0331003200330034003500000010
:1002E00011241FBECFEFDAE0DEBFCDBF11E0A0E0EA
:1002F000B1E0E2E2F3E102C005900D92A830B1074F
:10030000D9F711E0A8E0B1E001C01D92A231B10718
:10031000E1F719D40C948F0973CE84B1806F84B93E
:100320008AB183608AB993EA94BD81E085BD9093D8
:10033000B0008093B10091EA9093800089E08093AF
:10034000810010928200909390008093910010920F
:1003500092000895CF93DF93EC01FE0121968491E2
:10036000882311F06FD4F9CFDF91CF91089583E006
:1003700069D480E067D48DEF91E0ECCFFF920F93CA
:100380001F93CF93DF93182F092FF62E82E05AD4B4
:10039000212F302FC901EC0111E003C0888152D414
:1003A0001F5F21961F15D0F38AE04CD4DF91CF91C7
:1003B0001F910F91FF90089580E044D487E092E070
:1003C000C9CF0F931F93182F062F84E03BD4812FA2
:1003D00039D4143031F1153048F4113091F0113026
:1003E00070F0123081F01330B9F514C01630F9F006
:1003F0001630D0F0173011F1183071F526C007BD56
:100400002DC008BD2BC0802F90E090938900809371
:10041000880024C0802F90E090938B0080938A0006
:100420001DC00093B3001AC00093B40017C0802F02
:1004300090E0909399008093980010C0802F90E0F6
:1004400090939B0080939A0009C0802F90E0909336
:100450009D0080939C0002C081E001C080E0F2D347
:100460008AE0F0D31F910F9108950F931F93CF93BC
:10047000DF93EC01062F10E014C0B2D32FEF8F3FB3
:10048000920749F08D30910581F08A30910569F02D
:1004900089931F5F06C0A1D3882331F03DD580FF2B
:1004A00003C0101750F301C01FEF812FDF91CF91D0
:1004B0001F910F910895DF92EF92FF920F931F9378
:1004C000DF93CF9300D000D0CDB7DEB7182F87E0F1
:1004D000B9D3812FB7D3133009F4F1C0143038F4F5
:1004E000113009F454C0123008F09DC00DC0153011
:1004F00009F47DC1153008F42EC1163009F4C3C1CA
:10050000173009F058C20BC280E060E4AED601E0BB
:1005100010E0F0E2DF2E7E010894E11CF11CBAD657
:100520009C01892F9927482F4F708F7090700A97E0
:1005300018F4542F505D02C0542F595CC90174E067
:10054000969587957A95E1F7482F4F708F70907048
:100550000A9718F4842F805D02C0842F895C922F43
:100560009F702F7030702A30310510F4905D01C0FB
:10057000995C9B83DC828A835983C70164E070E0C5
:10058000A3D30F5F1F4F0A30110549F616C281E051
:1005900060E46BD688E893E120E931E0F901319716
:1005A000F1F70197D9F701E010E060E2D62E7E0165
:1005B0000894E11CF11C6ED69C01892F9927482FC5
:1005C0004F708F7090700A9718F4542F505D02C0CE
:1005D000542F595CC90144E0969587954A95E1F7F7
:1005E000482F4F708F7090700A9718F4842F805D99
:1005F00002C0842F895C922F9F702F7030702A3038
:10060000310510F4905D01C0995C9B83DC828A8384
:100610005983C70164E070E057D30F5F1F4F0A3062
:10062000110549F6CAC182E060E41FD688E893E16B
:1006300020E931E0F9013197F1F70197D9F701E0AD
:1006400010E080E2D82E7E010894E11CF11C22D635
:100650009C01892F9927482F4F708F7090700A97AF
:1006600018F4542F505D02C0542F595CC901A4E006
:1006700096958795AA95E1F7482F4F708F709070E7
:100680000A9718F4842F805D02C0842F895C922F12
:100690009F702F7030702A30310510F4905D01C0CA
:1006A000995C9B83DC828A835983C70164E070E094
:1006B0000BD30F5F1F4F0A30110549F67EC183E04F
:1006C00060E4D3D588E893E120E931E0F90131977E
:1006D000F1F70197D9F701E010E0F0E2DF2E7E019B
:1006E0000894E11CF11CD6D59C01892F9927482F2D
:1006F0004F708F7090700A9718F4542F505D02C09D
:10070000542F595CC90174E0969587957A95E1F765
:10071000482F4F708F7090700A9718F4842F805D67
:1007200002C0842F895C922F9F702F7030702A3006
:10073000310510F4905D01C0995C9B83DC828A8353
:100740005983C70164E070E0BFD20F5F1F4F0A30CA
:10075000110549F632C184E060E487D588E893E169
:1007600020E931E0F9013197F1F70197D9F701E07C
:1007700010E060E2D62E7E010894E11CF11C8AD5BF
:100780009C01892F9927482F4F708F7090700A977E
:1007900018F4542F505D02C0542F595CC90144E035
:1007A000969587954A95E1F7482F4F708F70907016
:1007B0000A9718F4842F805D02C0842F895C922FE1
:1007C0009F702F7030702A30310510F4905D01C099
:1007D000995C9B83DC828A835983C70164E070E063
:1007E00073D20F5F1F4F0A30110549F6E6C085E04E
:1007F00060E43BD588E893E120E931E0F9013197E5
:10080000F1F70197D9F701E010E080E2D82E7E01E0
:100810000894E11CF11C3ED59C01892F9927482F93
:100820004F708F7090700A9718F4542F505D02C06B
:10083000542F595CC901A4E096958795AA95E1F7D4
:10084000482F4F708F7090700A9718F4842F805D36
:1008500002C0842F895C922F9F702F7030702A30D5
:10086000310510F4905D01C0995C9B83DC828A8322
:100870005983C70164E070E027D20F5F1F4F0A3031
:10088000110549F69AC086E060E4EFD488E893E168
:1008900020E931E0F9013197F1F70197D9F701E04B
:1008A00010E0F0E2DF2E7E010894E11CF11CF2D48E
:1008B0009C01892F9927482F4F708F7090700A974D
:1008C00018F4542F505D02C0542F595CC90174E0D4
:1008D000969587957A95E1F7482F4F708F709070B5
:1008E0000A9718F4842F805D02C0842F895C922FB0
:1008F0009F702F7030702A30310510F4905D01C068
:10090000995C9B83DC828A835983C70164E070E031
:10091000DBD10F5F1F4F0A30110549F64EC087E04B
:1009200060E4A3D488E893E120E931E0F90131974C
:10093000F1F70197D9F701E010E060E2D62E7E01D1
:100940000894E11CF11CA6D49C01892F9927482FFB
:100950004F708F7090700A9718F4542F505D02C03A
:10096000542F595CC90144E0969587954A95E1F763
:10097000482F4F708F7090700A9718F4842F805D05
:1009800002C0842F895C922F9F702F7030702A30A4
:10099000310510F4905D01C0995C9B83DC828A83F1
:1009A0005983C70164E070E08FD10F5F1F4F0A3099
:1009B000110549F602C081E001C080E043D18AE020
:1009C00041D10F900F900F900F90CF91DF911F9119
:1009D0000F91FF90EF90DF900895FC016623D9F00E
:1009E0008081833079F0843028F4882341F081308D
:1009F00079F406C0843039F0873051F407C0DCCC7C
:100A0000CF01BCCCB4CC81816281DBCC818153CD60
:100A100088EE91E09FCC08950F931F93DF93CF93BF
:100A200000D000D0CDB7DEB780E060E41ED432D471
:100A30008C0120E0205D2B8380E28C832A83298334
:100A4000CE01019664E070E03FD10436110510F448
:100A500018BC29C0083C110530F418BC109289005C
:100A60001092880062C081E00C32180758F418BC5C
:100A700010928900109288008FEF8093B30010923B
:100A8000B40058C081E00039180738F418BC10923F
:100A90008900109288008FEF2DC081E0043F180775
:100AA00038F48FEF88BD109289001092880030C012
:100AB00082E00835180748F48FEF88BD109289004E
:100AC000109288001092B30033C082E00C3B1807EC
:100AD00038F48FEF88BD1092890010928800CDCF36
:100AE00083E00032180748F48FEF88BD1092890028
:100AF000109288008093B3001BC083E0043818076D
:100B000050F418BC8FEF90E0909389008093880098
:100B10001092B300B4CF085E134060F418BC8FEF9E
:100B200090E090938900809388001092B3008FEF3B
:100B30008093B4000F900F900F900F90CF91DF91A2
:100B40001F910F9108950F931F93DF93CF93CDB70C
:100B5000DEB7A0970FB6F894DEBF0FBECDBF80E81A
:100B60008093610082E080936100D7DB1DD035D097
:100B70008823E9F380E197E220E931E0F901319738
:100B8000F1F70197D9F78E010F5F1F4FC5D180FF95
:100B9000FDCF45D0C80160E268DC682F8F3FB1F31C
:100BA000C8011BDF39DFF6CF81E08093D70080EAF0
:100BB0008093D80082E189BD09B400FEFDCF80E9B1
:100BC0008093D8001092E000109208011092090161
:100BD0008CE08093E2007894089580910801089554
:100BE0002FB7F89480910801882339F083E080932F
:100BF000E9008091E80085FD04C02FBF2FEF3FEF93
:100C00000CC09091F1008091E80085FD03C08BE657
:100C10008093E8002FBF292F30E0C901089580910B
:100C20000801882371F09FB7F89483E08093E9006E
:100C30002BE602C02093E8008091E80085FDFACF02
:100C40009FBF0895482F809108018823D9F12FB7BD
:100C5000F89484E08093E90080910B01882341F0AF
:100C60008091E80085FD02C02FBF12C010920B01D9
:100C70009091E400975E34E08091E80085FD13C018
:100C80002FBF8091E400891729F481E080930B0144
:100C90008FEF0895809108018823A1F02FB7F89471
:100CA0003093E900E9CF4093F1008091E80085FDA1
:100CB00003C08AE38093E80085E080930A012FBF98
:100CC00080E008958FEF0895CF93DF93EC0180913A
:100CD0000801882309F41CC13FB7F89484E080938D
:100CE000E90080910B01882309F407C18091E80095
:100CF00085FD02C03FBF0CC110920B01FEC0909158
:100D0000E400975E8091E80085FD13C03FBF8091AD
:100D1000E400891721F481E080930B01F9C08091F0
:100D20000801882309F4F4C03FB7F8945093E90010
:100D3000E9CF8091F2002A2F281B822F90E06817BC
:100D4000790708F4262F822F90E08134910508F06E
:100D5000C6C08A5A9F4FFC01EE0FFF1F0590F49109
:100D6000E02D099489918093F10089918093F1009D
:100D700089918093F10089918093F100899180930A
:100D8000F10089918093F10089918093F10089911C
:100D90008093F10089918093F10089918093F10013
:100DA00089918093F10089918093F10089918093DA
:100DB000F10089918093F10089918093F1008991EC
:100DC0008093F10089918093F10089918093F100E3
:100DD00089918093F10089918093F10089918093AA
:100DE000F10089918093F10089918093F1008991BC
:100DF0008093F10089918093F10089918093F100B3
:100E000089918093F10089918093F1008991809379
:100E1000F10089918093F10089918093F10089918B
:100E20008093F10089918093F10089918093F10082
:100E300089918093F10089918093F1008991809349
:100E4000F10089918093F10089918093F10089915B
:100E50008093F10089918093F10089918093F10052
:100E600089918093F10089918093F1008991809319
:100E7000F10089918093F10089918093F10089912B
:100E80008093F10089918093F10089918093F10022
:100E900089918093F10089918093F10089918093E9
:100EA000F10089918093F10089918093F1008991FB
:100EB0008093F10089918093F10089918093F100F2
:100EC00089918093F10089918093F10089918093B9
:100ED000F10089918093F10089918093F1008991CB
:100EE0008093F1008091E80085FD02C0B093E80096
:100EF000621B710940930A0104C054E0A0E4BAE304
:100F000045E06115710509F0FACE3FBF80E001C0F0
:100F10008FEFDF91CF9108958091090108951F927D
:100F20000F920FB60F9211248F939F938091E1003F
:100F30001092E100982F83FF11C01092E90081E028
:100F40008093EB001092EC0082E18093ED0088E04A
:100F50008093F000109208011092090192FF13C0D3
:100F600080910801882379F080910A01882359F043
:100F7000815080930A01882331F484E08093E90052
:100F80008AE38093E8009F918F910F900FBE0F909E
:100F90001F9018951F920F920FB60F9211240F9366
:100FA0001F932F933F934F935F936F937F938F93F1
:100FB0009F93AF93BF93EF93FF931092E9008091BB
:100FC000E80083FF3CC14091F1003091F100809135
:100FD000F100682F70E02091F100922F80E0682BE3
:100FE000792B8091F100A82FB0E02091F100922F91
:100FF00080E0A82BB92B1091F1000091F10082EF55
:101000008093E800363009F05AC02EE132E0A901A1
:1010100045505040F901379785919491861797076D
:1010200001F5FA01859194918A179B07D1F49A01F1
:101030002E5F3F4FF901659174912E5F3F4FF9018B
:101040004491212F30E0902F80E0282B392B2F3F27
:10105000310519F010F02FEF30E0241758F4422F2B
:1010600009C0295F3F4F495F5F4FF2E028343F07D7
:1010700089F6E5C05EEF8091E800282F30E0C901D5
:1010800085709070892BB9F322FDDCC0342F41317B
:1010900008F030E1232FCB0106C0FC010196E4915A
:1010A000E093F10021502223C1F7630F711D431B10
:1010B0005093E8004423F9F63031E9F2C3C03530EB
:1010C00061F48EEF8093E8008091E80080FFFCCF10
:1010D000862F80688093E300B5C0393051F54423F2
:1010E00009F0ADC0609308011092090110920A0145
:1010F0008EEF8093E80081E492E021E02093E90004
:10110000FC010196E491E093EB00EE2369F0AC0161
:101110004F5F5F4FFC0184918093EC00CA01019600
:10112000FA0134913093ED002F5F253039F78EE1CD
:1011300081C0383061F4403809F081C08091E80006
:1011400080FFFCCF809108018093F10050C03132C4
:1011500089F4413A09F073C08091E80080FFFCCF28
:10116000E0E0F1E081918093F10081E0E730F80761
:10117000C9F73DC03032A1F4413209F060C080911E
:10118000E80082FFFCCFE0E0F1E08091F100819384
:1011900081E0E730F807C9F78BEF8093E80027C0BC
:1011A000323251F4413209F04AC060930901809112
:1011B000E80080FFFCCF1BC03323E9F48091E800F6
:1011C00080FFFCCF423811F080E00DC0A093E90011
:1011D0008091EB0090E025E0969587952A95E1F7C0
:1011E00081701092E9008093F1001092F1008EEF6F
:1011F0008093E80027C0313011F0333001F54230E0
:10120000F1F4672BE1F42A2F2F77822F815084305D
:10121000B0F48EEF8093E8002093E900333079F04A
:1012200089E18093EB0081E090E002C0880F991F74
:101230002A95E2F78093EA001092EA0003C081E267
:101240008093EB00FF91EF91BF91AF919F918F91B0
:101250007F916F915F914F913F912F911F910F91CE
:101260000F900FBE0F901F901895EAE7F0E096E8F8
:101270009083982F9072906890937B008F71862B4B
:1012800080937C0010920C0110920D018EEE8083F1
:101290007894089580910C01E0910D018E17D1F39F
:1012A0008E2F8F5F823008F080E0E82FF0E0EE0FA5
:1012B000FF1FE25FFE4F2081318180930D01C90144
:1012C00008951F920F920FB60F9211242F933F9300
:1012D0008F939F93EF93FF93209178003091790043
:1012E00090910C019F5F923008F090E080910D0189
:1012F000981751F0E92FF0E0EE0FFF1FE25FFE4F6D
:101300003183208390930C01FF91EF919F918F91F6
:101310003F912F910F900FBE0F901F901895F8944A
:02132000FFCFFD
:0813220000E1000000000800DA
:00000001FF
