:10000000CBC00000E4C00000E2C00000E0C000007F
:10001000DEC00000DCC00000DAC00000D8C0000074
:10002000D6C00000D4C00000F3C100002CC2000004
:10003000CEC00000CCC00000CAC00000C8C0000094
:10004000C6C00000C4C00000C2C00000C0C00000A4
:10005000BEC00000BCC00000BAC00000B8C00000B4
:10006000B6C00000B4C00000B2C00000B0C00000C4
:10007000AEC00000ADC00000AAC00000A8C00000D3
:10008000A6C00000A4C00000A2C00000A0C00000E4
:100090009EC000009CC000009AC0000098C00000F4
:1000A00096C0000094C0000092C00000B5016E012F
:1000B00074017B01820185018E019701A001A801D5
:1000C000B501B501B501B501B501B501BF0100012B
:1000D00000000201120002000014014300030000AE
:1000E000570104010309045B0114020309047101AF
:1000F000160303090489010C0001C11201803601B5
:1001000081361201000202000010C0167A040001BC
:100110000102030109024300020100C03209040088
:100120000001020201000524001001052401010163
:10013000042402060524060001070582031000407E
:1001400009040100020A0000000705030240000044
:100150000705840240000004030904140359006FDA
:10016000007500720020004E0061006D0065000007
:100170000016035500530042002000530065007232
:1001800000690061006C0000000C03310032003394
:10019000003400350000000011241FBECFEFDAE06C
:1001A000DEBFCDBF11E0A0E0B1E0E2EFF9E002C0B8
:1001B00005900D92A830B107D9F711E0A8E0B1E0A1
:1001C00001C01D92A431B107E1F716D110C418CFB8
:1001D0001F920F920FB60F9211242F933F938F937C
:1001E0009F93EF93FF932091780030917900909145
:1001F00008019F5F923008F090E080910901981704
:1002000051F0E92FF0E0EE0FFF1FE65FFE4F318364
:10021000208390930801FF91EF919F918F913F91DF
:100220002F910F900FBE0F901F90189586E8809326
:100230007A0080E880937B0080E480937C001092B9
:100240000801109209018EEE80937A0078948091D3
:100250000801E09109018E17D1F38E2F8F5F823054
:1002600008F080E0E82FF0E0EE0FFF1FE65FFE4FA2
:100270002081318180930901C9010895AA2797FD42
:10028000A095BA2FBC01CD019CD220E030E040E225
:1002900050E4FBD263D29B016436710514F023E66F
:1002A00030E0C9016AE070E07BD36093120186EF11
:1002B0009FEF689F602D1124620F609313010895D2
:1002C000E82FF0E0E131F10508F062C0EA5AFF4F93
:1002D000EE0FFF1F0590F491E02D099418BC1092C9
:1002E0008900109288003BC018BC109289001092BF
:1002F00088008FEF19C018BC1092890010928800F6
:100300008FEF1BC08FEF88BD31C08FEF88BD10927B
:100310008900109288001092B30024C08FEF88BD2E
:1003200010928900109288008093B30025C08FEF4F
:1003300088BD10928900109288008093B30012C08B
:1003400018BC8FEF90E0909389008093880012C0D2
:1003500018BC8FEF90E090938900809388001092F2
:10036000B3008FEF8093B400089518BC10928900F9
:10037000109288001092B3001092B400089518BC37
:1003800010928900109288001092B3001092B4006D
:1003900008950F931F938FEF87BD8091120190DF17
:1003A00000E41FE1C8010197F1F717BC8091130128
:1003B00087DFC8010197F1F71F910F91089584B16C
:1003C000806F84B98AB183608AB993EA94BD81E071
:1003D00085BD9093B0008093B10091EA9093800026
:1003E00089E0809381001092820090939000809326
:1003F000910010929200089580E88093610082E05D
:1004000080936100DCDF12DF90E038DFC2DFFBCFDA
:100410001F920F920FB60F9211248F939F9380918A
:10042000E1001092E100982F83FF11C01092E900C3
:1004300081E08093EB001092EC0082E18093ED006C
:1004400088E08093F00010920E0110920F0192FF4D
:1004500013C080910E01882379F0809110018823C8
:1004600059F0815080931001882331F484E0809307
:10047000E9008AE38093E8009F918F910F900FBE6F
:100480000F901F9018951F920F920FB60F92112484
:100490000F931F932F933F934F935F936F937F938C
:1004A0008F939F93AF93BF93EF93FF931092E900C5
:1004B0008091E80083FF3CC14091F1003091F10050
:1004C0008091F100682F70E02091F100922F80E080
:1004D000682B792B8091F100A82FB0E02091F100DA
:1004E000922F80E0A82BB92B1091F1000091F10020
:1004F00082EF8093E800363009F05AC025ED30E0F5
:10050000A90145505040F90137978591949186177C
:10051000970701F5FA01859194918A179B07D1F409
:100520009A012E5F3F4FF901659174912E5F3F4F05
:10053000F9014491212F30E0902F80E0282B392BB6
:100540002F3F310519F010F02FEF30E0241758F449
:10055000422F09C0295F3F4F495F5F4FF0E02F3FB7
:100560003F0789F6E5C05EEF8091E800282F30E074
:10057000C90185709070892BB9F322FDDCC0342F3E
:10058000413108F030E1232FCB0106C0FC01019678
:10059000E491E093F10021502223C1F7630F711D14
:1005A000431B5093E8004423F9F63031E9F2C3C00D
:1005B000353061F48EEF8093E8008091E80080FF91
:1005C000FCCF862F80688093E300B5C0393051F5A9
:1005D000442309F0ADC060930E0110920F011092F8
:1005E00010018EEF8093E80088EF90E021E02093E7
:1005F000E900FC010196E491E093EB00EE2369F041
:10060000AC014F5F5F4FFC0184918093EC00CA0105
:100610000196FA0134913093ED002F5F253039F7C0
:100620008EE181C0383061F4403809F081C080919A
:10063000E80080FFFCCF80910E018093F10050C054
:10064000313289F4413A09F073C08091E80080FFAB
:10065000FCCFE0E0F1E081918093F10081E0E730B0
:10066000F807C9F73DC03032A1F4413209F060C04B
:100670008091E80082FFFCCFE0E0F1E08091F100A2
:10068000819381E0E730F807C9F78BEF8093E800AA
:1006900027C0323251F4413209F04AC060930F0151
:1006A0008091E80080FFFCCF1BC03323E9F48091E8
:1006B000E80080FFFCCF423811F080E00DC0A0932D
:1006C000E9008091EB0090E025E0969587952A95CA
:1006D000E1F781701092E9008093F1001092F1002F
:1006E0008EEF8093E80027C0313011F0333001F5F0
:1006F0004230F1F4672BE1F42A2F2F77822F8150BB
:100700008430B0F48EEF8093E8002093E90033301A
:1007100079F089E18093EB0081E090E002C0880FDE
:10072000991F2A95E2F78093EA001092EA0003C02D
:1007300081E28093EB00FF91EF91BF91AF919F9188
:100740008F917F916F915F914F913F912F911F9169
:100750000F910F900FBE0F901F90189504D06894C2
:10076000B1118DC0089570D088F09F5790F0B92FC7
:100770009927B751A0F0D1F0660F771F881F991FF6
:100780001AF0BA95C9F712C0B13081F077D0B1E054
:10079000089574C0672F782F8827B85F39F0B93F64
:1007A000CCF3869577956795B395D9F73EF49095F8
:1007B0008095709561957F4F8F4F9F4F0895E89476
:1007C00009C097FB3EF490958095709561957F4F99
:1007D0008F4F9F4F9923A9F0F92F96E9BB27939547
:1007E000F695879577956795B795F111F8CFFAF457
:1007F000BB0F11F460FF1BC06F5F7F4F8F4F9F4F88
:1008000016C0882311F096E911C0772321F09EE8E5
:10081000872F762F05C0662371F096E8862F70E04B
:1008200060E02AF09A95660F771F881FDAF7880F25
:100830009695879597F9089557FD9058440F551F41
:1008400059F05F3F71F04795880F97FB991F61F052
:100850009F3F79F087950895121613061406551FC9
:10086000F2CF4695F1DF08C0161617061806991F35
:10087000F1CF86957105610508940895E894BB272A
:1008800066277727CB0197F908950BD078C069D0F8
:1008900028F06ED018F0952309F05AC05FC01124DB
:1008A000EECFCADFA0F3959FD1F3950F50E0551F0F
:1008B000629FF001729FBB27F00DB11D639FAA27B5
:1008C000F00DB11DAA1F649F6627B00DA11D661F04
:1008D000829F2227B00DA11D621F739FB00DA11D25
:1008E000621F839FA00D611D221F749F3327A00DDF
:1008F000611D231F849F600D211D822F762F6A2F7B
:1009000011249F5750408AF0E1F088234AF0EE0FFF
:10091000FF1FBB1F661F771F881F91505040A9F70C
:100920009E3F510570F014C0AACF5F3FECF3983E94
:10093000DCF3869577956795B795F795E7959F5F73
:10094000C1F7FE2B880F911D9695879597F908950D
:1009500097F99F6780E870E060E008959FEF80EC72
:10096000089500240A941616170618060906089515
:1009700000240A9412161306140605060895092E7B
:100980000394000C11F4882352F0BB0F40F4BF2BEA
:1009900011F460FF04C06F5F7F4F8F4F9F4F08952A
:1009A00097FB092E07260AD077FD04D00CD006D07D
:1009B00000201AF4709561957F4F0895F6F7909591
:1009C00081959F4F0895AA1BBB1B51E107C0AA1F29
:1009D000BB1FA617B70710F0A61BB70B881F991FE0
:1009E0005A95A9F780959095BC01CD010895F8948A
:0209F000FFCF37
:0809F20000E100000000080014
:00000001FF
